:0400000038EF03F0E2
:1000080000C016F001C015F0E9CF17F0EACF18F0DC
:10001800896A3E0EE96E000EEA6E3850E926D8B0BD
:10002800EA2AEECF8CFF37C089FF37C001F00136CE
:10003800019001C037F00150080802E2010E376E46
:10004800382A38500308D8A0386AD66AF29416C0FD
:1000580000F015C001F017C0E9FF18C0EAFF110051
:0A006800210E0D6E0D2EFED71200C2
:100072000F0E0C6E470E0D6E0D2EFED70C2EFCD7FA
:0600820000000000120066
:0600880000000000120060
:10008E004BBE02D08A9601D08A864BBC02D08A948F
:10009E0001D08A844BBA02D08A9201D08A824BB8A0
:1000AE0002D08A9001D08A8039B002D08A8801D0DD
:1000BE008A988A8AE2DF8A9A4BB602D08A9601D053
:1000CE008A864BB402D08A9401D08A844BB202D075
:1000DE008A9201D08A824BB002D08A9001D08A8057
:1000EE0039B002D08A8801D08A988A8AC6DF8A9A65
:0C00FE0039A002D0B7DF01D0B0DF120043
:0C010A0039904AC04BF0BEDF3980120073
:100116000134083609360450085E0550D8A0053C5F
:10012600095E003601360F0E0C6E013408360936AC
:10013600045000A006D0085E0550D8A0053C095E14
:1001460005D008260550D8B0053C092600360136EC
:100156000C2EEBD700B006D0045008260550D8B0B8
:08016600053C0926000012000F
:10016E00220E0C6E086A096A0A6A0B6A0C06D8B46B
:10017E001FD0D8900B320A320932083203320232C3
:10018E0001320032D8A0F2D70C06D8B409D00450F0
:10019E0008260550092206500A2207500B22EAD7DC
:1001AE00045008260550092206500A2207500B2239
:0201BE0012002D
:1001C0000450000A08E10550000A05E1FF0E006E28
:1001D0007F0E016E57D00D6A096A086A015000103F
:1001E000D8B4000C015005180A6E0ABE0D1E0B6A29
:1001F00005AE05D0041E051E042AD8B4052A01AE9A
:1002000005D0001E011E002AD8B4012A0150051095
:100210000A6E0ABE10D07FDF0BB020D00DAE000CEE
:10022000001E011E002AD8B4012A081E091E082A31
:10023000D8B4092A000C05AE0DD001BE07D001507C
:10024000096E0050086E016A006AE8D7016A006A08
:10025000002A000C011E001E0B2ADDD7082AD8B484
:10026000092A0450085CD8A4D9D70550095CD8A441
:10027000D5D7096A086A002AD8B4012A01AECED7B8
:060280000000FF0C12005B
:10028600086A096A100E0C6E0134083609360450E5
:10029600085E0550D8A0053C095ED8B007D00450CA
:1002A60008260550D8B0053C0926D89000360136F8
:0602B6000C2EEAD7120035
:1002BC00D00E466E070E476E000E486E496ED00E7D
:1002CC00006E070E016E000E026E000E036E44C02F
:1002DC0004F045C005F0000E066E076E42DF00C04C
:1002EC0046F001C047F002C048F003C049F0000ED0
:1002FC00035C08E1000E025C05E1020E015C02E108
:10030C00940E005C01E231D0940E465E020E475A08
:10031C00000E485A495A050E006E005007E049324B
:10032C00483247324632499EFF0FF8D746C000F09C
:10033C0047C001F048C002F049C003F0010E465E10
:10034C00000E475A485A495A005001100210031027
:10035C000CE00000000000000000000000000000A5
:0C036C000000000000000000E1D71200BB
:10037800939A939893909392939493968A9A8A983F
:100388008A968A948A928A9070DE6FDE6EDE8A82FE
:100398008A808A8A75DE8A9A68DE8A8A71DE8A9AF3
:1003A80064DE8A8A6DDE8A9A60DE8A908A8A68DECE
:1003B8008A9A5BDE8A8A64DE8A9A8A928A868A8A1E
:1003C8005FDE8A9A52DE8A968A808A8A59DE8A9AFB
:1003D8008A908A8A55DE8A9A48DE8A8A51DE8A9A03
:1003E8008A808A8A4DDE8A9A40DE8A908A8A48DE26
:1003F8008A9A8A868A848A828A808A8A41DE8A9A46
:0604080034DE3980120011
:10040E000FD0800E446E19D0C00E446E16D0940ECE
:10041E00446E13D0D40E446E10D0800E446E0DD0A8
:10042E004450010AEEE04450020AEEE04450030A42
:10043E00EEE04450040AEEE0F0D74504006E44505E
:10044E00002600C044F000C04BF01ADE3990486A16
:10045E0048504624E96E000E4720EA6EEE520BE03D
:10046E0048504624E96E000E4720EA6EEECF4AF061
:0A047E0045DE482AEDD73980120050
:100488001ED03F0E006E39D0060E006E36D05B0EC1
:10049800006E33D04F0E006E30D0660E006E2DD039
:1004A8006D0E006E2AD07D0E006E27D0070E006EEE
:1004B80024D07F0E006E21D06F0E006E1ED04450E7
:1004C800000ADFE04450010ADFE04450020ADFE09E
:1004D8004450030ADFE04450040ADFE04450050AB0
:1004E800DFE04450060ADFE04450070ADFE04450EA
:0C04F800080ADFE04450090ADFE01200AF
:100504000F01386B3B6B926A896A956A8C6AC40ED8
:10051400D56ED66A3C6A3D6A386A010E376EF28E31
:04052400F28A120045
:100528000F01396B25DF010E4B6EADDD0C0E4B6EE6
:04053800AADD120026
:10053C000900F5CFE6FF0006FBE10106F9E1120028
:10054C003AC082FF35C044F036C045F0B1DE3A36D1
:06055C003A903B3612004C
:100562003AC082FF35C044F036C045F0A6DE3B32C9
:100572003A323B9E3BBC3B8E3BAE03D002E33A4A4F
:040582003B2A1200FE
:10058600010E4B6E81DD010E446E010E456E42C0BA
:1005960046F0000E476E38DF020E446E010E456EC1
:0C05A60043C046F0000E476E2FDF12002D
:1005B200E80E046E030E056E3AC000F03BC001F077
:1005C20061DE00C03CF001C03DF000C044F05BDFE2
:1005D20000C041F0640E046E000E056E3AC000F0D9
:1005E2003BC001F0ECDD0A0E046E000E056EE7DD85
:1005F20008C000F009C001F000C03CF001C03DF0AD
:1006020000C044F040DF00C040F00A0E046E000E4D
:10061200056E3AC000F03BC001F0D1DD0A0E046E57
:10062200000E056ECCDD08C000F009C001F000C06C
:100632003CF001C03DF000C044F025DF00C03FF0B7
:100642000A0E046E000E056E3AC000F03BC001F0C7
:10065200B6DD08C000F009C001F000C03CF001C0E6
:0E0662003DF000C044F00FDF00C03EF012007B
:1006700066EC03F059DF46DF190E426E260E436E1C
:1006800082DF946A826A000E3B1802E1800E3A18FB
:1006900003E05CDF8EDFF7D7000E3B1802E1010EAE
:0E06A0003A1803E05EDF85DFF7D7EDD7FFD70E
:1006CC0010EE19F01E0E006E010E016EAE0EF66EDF
:0E06DC00060EF76E000EF86E9EEC02F0120095
:0D06AE004B6E6967687420526964657200C4
:0F06BB0042792050656E6E792042656C6C650047
:0206CA00F40139
:020000040030CA
:0D000100231F3CFFBF81FF0FC00FE00F4029
:00000001FF
