:040000001BEF03F0FF
:1000080000C016F001C015F0E9CF17F0EACF18F0DC
:10001800896A3D0EE96E000EEA6E4450E926D8B0B2
:10002800EA2AEECF8CFF45C089FF45C001F00136B2
:10003800019001C045F00150080802E2010E456E2A
:10004800442A44500308D8A0446AD66AF29416C0D9
:1000580000F015C001F017C0E9FF18C0EAFF110051
:0A006800210E0D6E0D2EFED71200C2
:100072000F0E0C6E470E0D6E0D2EFED70C2EFCD7FA
:0600820000000000120066
:0600880000000000120060
:10008E0052BE02D08A9601D08A8652BC02D08A9481
:10009E0001D08A8452BA02D08A9201D08A8252B892
:1000AE0002D08A9001D08A8041B002D08A8801D0D5
:1000BE008A988A8AE2DF8A9A52B602D08A9601D04C
:1000CE008A8652B402D08A9401D08A8452B202D067
:1000DE008A9201D08A8252B002D08A9001D08A8050
:1000EE0041B002D08A8801D08A988A8AC6DF8A9A5D
:0C00FE0041A002D0B7DF01D0B0DF12003B
:10010A000134083609360450085E0550D8A0053C6B
:10011A00095E003601360F0E0C6E013408360936B8
:10012A00045000A006D0085E0550D8A0053C095E20
:10013A0005D008260550D8B0053C092600360136F8
:10014A000C2EEBD700B006D0045008260550D8B0C4
:08015A00053C0926000012001B
:0C016200419051C052F092DF4180120029
:10016E00220E0C6E086A096A0A6A0B6A0C06D8B46B
:10017E001FD0D8900B320A320932083203320232C3
:10018E0001320032D8A0F2D70C06D8B409D00450F0
:10019E0008260550092206500A2207500B22EAD7DC
:1001AE00045008260550092206500A2207500B2239
:0201BE0012002D
:1001C000086A096A100E0C6E0134083609360450AC
:1001D000085E0550D8A0053C095ED8B007D0045091
:1001E00008260550D8B0053C0926D89000360136BF
:0601F0000C2EEAD71200FC
:1001F6000FD0800E4C6E19D0C00E4C6E16D0940ED9
:100206004C6E13D0D40E4C6E10D0800E4C6E0DD0AA
:100216004C50010AEEE04C50020AEEE04C50030A44
:10022600EEE04C50040AEEE0F0D74D04006E4C5060
:10023600002600C04CF000C052F026DF4190506A04
:1002460050504E24E96E000E4F20EA6EEE520BE03F
:1002560050504E24E96E000E4F20EA6EEECF51F05C
:0A0266007DDF502AEDD74180120021
:100270000450000A08E10550000A05E1FF0E006E77
:100280007F0E016E57D00D6A096A086A015000108E
:10029000D8B4000C015005180A6E0ABE0D1E0B6A78
:1002A00005AE05D0041E051E042AD8B4052A01AEE9
:1002B00005D0001E011E002AD8B4012A01500510E5
:1002C0000A6E0ABE10D021DF0BB020D00DAE000C9C
:1002D000001E011E002AD8B4012A081E091E082A81
:1002E000D8B4092A000C05AE0DD001BE07D00150CC
:1002F000096E0050086E016A006AE8D7016A006A58
:10030000002A000C011E001E0B2ADDD7082AD8B4D3
:10031000092A0450085CD8A4D9D70550095CD8A490
:10032000D5D7096A086A002AD8B4012A01AECED707
:060330000000FF0C1200AA
:10033600939A939893909392939493968A9A8A9881
:100346008A968A948A928A9091DE90DE8FDE8A82DD
:100356008A808A8A96DE8A9A89DE8A8A92DE8A9AD2
:1003660085DE8A8A8EDE8A9A81DE8A908A8A89DE8C
:100376008A9A7CDE8A8A85DE8A9A8A928A868A8A1E
:1003860080DE8A9A73DE8A968A808A8A7ADE8A9ADA
:100396008A908A8A76DE8A9A69DE8A8A72DE8A9AE2
:1003A6008A808A8A6EDE8A9A61DE8A908A8A69DE05
:1003B6008A9A8A868A848A828A808A8A62DE8A9A67
:0603C60055DE418012002B
:1003CC001ED03F0E006E39D0060E006E36D05B0E7E
:1003DC00006E33D04F0E006E30D0660E006E2DD0F6
:1003EC006D0E006E2AD07D0E006E27D0070E006EAB
:1003FC0024D07F0E006E21D06F0E006E1ED04C509C
:10040C00000ADFE04C50010ADFE04C50020ADFE04A
:10041C004C50030ADFE04C50040ADFE04C50050A54
:10042C00DFE04C50060ADFE04C50070ADFE04C508E
:0C043C00080ADFE04C50090ADFE0120063
:10044800E80E046E030E056E3BC000F03CC001F0E0
:10045800B3DE00C042F001C043F000C04CF0B2DF90
:1004680000C040F0640E046E000E056E3BC000F044
:100478003CC001F0F9DE0A0E046E000E056EF4DED3
:1004880008C000F009C001F000C042F001C043F00C
:1004980000C04CF097DF00C03FF00A0E046E000E5B
:1004A800056E3BC000F03CC001F0DEDE0A0E046EB3
:1004B800000E056ED9DE08C000F009C001F000C0CA
:1004C80042F001C043F000C04CF07CDF00C03EF0B9
:1004D8000A0E046E000E056E3BC000F03CC001F031
:1004E800C3DE08C000F009C001F000C042F001C03E
:0E04F80043F000C04CF066DF00C03DF0120083
:100506000F01396B15DF010E526EBEDD0C0E526EF9
:04051600BBDD120037
:10051A000900F5CFE6FF0006FBE10106F9E112004A
:10052A00D00E486E070E496E000E4A6E4B6ED00E04
:10053A00006E070E016E000E026E000E036E46C0BC
:10054A0004F047C005F0000E066E076E0BDE00C011
:10055A0048F001C049F002C04AF003C04BF0000E57
:10056A00035C08E1000E025C05E1020E015C02E197
:10057A00940E005C01E231D0940E485E020E495A94
:10058A00000E4A5A4B5A050E006E005007E04B32D5
:10059A004A32493248324B9EFF0FF8D748C000F022
:1005AA0049C001F04AC002F04BC003F0010E485E98
:1005BA00000E495A4A5A4B5A0050011002100310B1
:1005CA000CE0000000000000000000000000000035
:0C05DA000000000000000000E1D712004B
:1005E600010E526E51DD010E4C6E010E4D6E46C06F
:1005F6004EF0000E4F6EFCDD020E4C6E010E4D6E7F
:0C06060047C04EF0000E4F6EF3DD1200F6
:100612000F01386B3B6B926A896A956A8C6AC40EC9
:10062200D56ED66A426A436A446A010E456EF28EFC
:04063200F28A120036
:1006360052EC03F065DFEADF190E466E2A0E476EAE
:10064600CFDF946A946A826A0F0E3B6E000E3C6E90
:10065600F8DE3BC082FF39C046F03AC047F062DFA1
:10066600F00E3B6E000E3C6EECDE3BC082FF39C0E6
:0C06760046F03AC047F056DFE7D7FFD748
:1006A40010EE19F0220E006E010E016E820EF66E2F
:0E06B400060EF76E000EF86E8DEC02F01200CE
:1006820043204E756D6265722053797374656D7384
:010692000067
:0F06930042792050656E6E792042656C6C65006F
:0206A200F40161
:020000040030CA
:0D000100231F3CFFBF81FF0FC00FE00F4029
:00000001FF
