:0400000053EF03F0C7
:1000080000C016F001C015F0E9CF17F0EACF18F0DC
:10001800896A640EE96E000EEA6E00016351E926F2
:10002800D8B0EA2AEECF8CFF62C089FF62C001F027
:100038000136019001C062F00150080802E2010E89
:10004800626F632B63510308D8A0636BD66AF2947E
:1000580016C000F015C001F017C0E9FF18C0EAFF8C
:02006800110085
:0A006A00210E0D6E0D2EFED71200C0
:100074000F0E0C6E470E0D6E0D2EFED70C2EFCD7F8
:0600840000000000120064
:06008A000000000012005E
:100090000134083609360450085E0550D8A0053CE6
:1000A000095E003601360F0E0C6E01340836093633
:1000B000045000A006D0085E0550D8A0053C095E9B
:1000C00005D008260550D8B0053C09260036013673
:1000D0000C2EEBD700B006D0045008260550D8B03F
:0800E000053C09260000120096
:1000E800220E0C6E086A096A0A6A0B6A0C06D8B4F2
:1000F8001FD0D8900B320A3209320832033202324A
:1001080001320032D8A0F2D70C06D8B409D0045076
:1001180008260550092206500A2207500B22EAD762
:10012800045008260550092206500A2207500B22BF
:020138001200B3
:10013A0000017CBF02D08A9601D08A867CBD02D09B
:10014A008A9401D08A847CBB02D08A9201D08A82A6
:10015A007CB902D08A9001D08A8061B102D08A88A3
:10016A0001D08A988A8A8CDF8A9A7CB702D08A96CA
:10017A0001D08A867CB502D08A9401D08A847CB365
:10018A0002D08A9201D08A827CB102D08A9001D0B0
:10019A008A8061B102D08A8801D08A988A8A70DFFF
:0E01AA008A9A61A102D061DF01D05ADF1200F3
:1001B8001ED03F0E006E3AD0060E006E37D05B0E92
:1001C800006E34D04F0E006E31D0660E006E2ED009
:1001D8006D0E006E2BD07D0E006E28D0070E006EBF
:1001E80025D07F0E006E22D06F0E006E1FD000014A
:1001F8007C51000ADEE07C51010ADEE07C51020AF3
:10020800DEE07C51030ADEE07C51040ADEE07C512A
:10021800050ADEE07C51060ADEE07C51070ADEE0D2
:0E0228007C51080ADEE07C51090ADEE012007B
:10023600086A096A100E0C6E013408360936045035
:10024600085E0550D8A0053C095ED8B007D004501A
:1002560008260550D8B0053C0926D8900036013648
:060266000C2EEAD7120085
:10026C000450000A08E10550000A05E1FF0E006E7B
:10027C007F0E016E57D00D6A096A086A0150001092
:10028C00D8B4000C015005180A6E0ABE0D1E0B6A7C
:10029C0005AE05D0041E051E042AD8B4052A01AEED
:1002AC0005D0001E011E002AD8B4012A01500510E9
:1002BC000A6E0ABE10D0E6DE0BB020D00DAE000CDC
:1002CC00001E011E002AD8B4012A081E091E082A85
:1002DC00D8B4092A000C05AE0DD001BE07D00150D0
:1002EC00096E0050086E016A006AE8D7016A006A5C
:1002FC00002A000C011E001E0B2ADDD7082AD8B4D8
:10030C00092A0450085CD8A4D9D70550095CD8A494
:10031C00D5D7096A086A002AD8B4012A01AECED70B
:06032C000000FF0C1200AE
:10033200E80E046E030E056E6BC000F06CC001F097
:1003420079DF00C069F001C06AF000C07CF033DFE1
:1003520000C067F0640E046E000E056E6BC000F004
:100362006CC001F082DF0A0E046E000E056E7DDFA6
:1003720008C000F009C001F000C069F001C06AF0D5
:1003820000C07CF018DF00C066F00A0E046E000E9A
:10039200056E6BC000F06CC001F067DF0A0E046EE0
:1003A200000E056E62DF08C000F009C001F000C057
:1003B20069F001C06AF000C07CF0FDDE00C065F0AB
:1003C2000A0E046E000E056E6BC000F06CC001F0E8
:1003D2004CDF08C000F009C001F000C069F001C0A4
:0E03E2006AF000C07CF0E7DE00C064F012009C
:1003F000D00E0001786F070E796F000E7A6F7B6F59
:10040000D00E006E070E016E000E026E000E036E1F
:1004100076C004F077C005F0000E066E076E64DE4D
:1004200000C078F001C079F002C07AF003C07BF020
:10043000000E035C08E1000E025C05E1020E015CA7
:1004400002E1940E005C01E231D0940E785F020E5E
:10045000795B000E7A5B7B5B050E006E005007E057
:100460007B337A33793378337B9FFF0FF8D778C0AB
:1004700000F079C001F07AC002F07BC003F0010EF9
:10048000785F000E795B7A5B7B5B00500110021095
:1004900003100CE00000000000000000000000005D
:0E04A00000000000000000000000E1D7120084
:0E04AE000001619176C07CF041DE6181120098
:1004BC0010D0800E0001716F1AD0C00E716F17D062
:1004CC00940E716F14D0D40E716F11D0800E716FA9
:1004DC000ED000017151010AECE07151020AEDE0FD
:1004EC007151030AEDE07151040AEDE0EFD772058A
:1004FC00006E7151002600C071F000C07CF017DE58
:10050C006191756B75517325E96E000E7421EA6E5D
:10051C00EE520BE075517325E96E000E7421EA6EF4
:0E052C00EECF76F0BEDF752BEDD761811200A9
:10053A00939A939893909392939493968A9A8A987B
:10054A008A968A948A928A9090DD8FDD8EDD8A82DD
:10055A008A808A8A95DD8A9A88DD8A8A91DD8A9AD2
:10056A0084DD8A8A8DDD8A9A80DD8A908A8A88DD8E
:10057A008A9A7BDD8A8A84DD8A9A8A928A868A8A1C
:10058A007FDD8A9A72DD8A968A808A8A79DD8A9ADA
:10059A008A908A8A75DD8A9A68DD8A8A71DD8A9AE2
:1005AA008A808A8A6DDD8A9A60DD8A908A8A68DD05
:1005BA008A9A8A868A848A828A808A8A61DD8A9A63
:0805CA0054DD00016181120003
:1005D20071C06BF072C06CF0ABDE6BC082FF4EC0BC
:0A05E20076F04FC077F003DF12003F
:1005EC000900F5CFE6FF0006FBE10106F9E1120078
:1005FC000F01396B9CDF010E7C6F99DD0C0E7C6F4B
:04060C0096DD120065
:100610000001686B050E685D0CE26DC071F06EC084
:1006200072F0D7DF6FC071F070C072F0D2DF682B4C
:10063000F1D7100E0B6E390E0C6E0D0E0D6E0D2EC9
:10064000FED70C2EFCD70B2EFAD7000000008C6AC8
:02065000120096
:10065200010E00017C6F70DD010E716F010E726F71
:100662006DC073F0000E746F28DF020E716F010E01
:0E067200726F6EC073F0000E746F1FDF120007
:100680000F01386B3B6B926A896A956A8C6AC40E5B
:10069000D56ED66A0001696B6A6B636B010E626F7F
:0606A000F28EF28A120046
:1006A600CAEC03F0A8DFE9DF500E6D6F3F0E6E6FE8
:1006B600CDDF946A946A826A150E0B6E4B0E0C6E31
:1006C600BE0E0D6E0D2EFED70C2EFCD70B2EFAD7B6
:1006D6000000500E6D6F310E6E6FB8DF0F0E6D6F2E
:1006E600000E6E6FF00E6F6F000E706F8EDF500E85
:1006F6006D6F310E6E6FAADF550E6D6F000E6E6F49
:10070600AA0E6F6F000E706F80DF500E6D6F240E95
:100716006E6F9CDF550E6D6F000E6E6FAA0E6F6FBB
:10072600000E706F72DF500E6D6F190E6E6F8EDFDA
:10073600550E6D6F000E6E6FAA0E6F6F000E706F06
:0607460064DFC7D7FFD7F6
:1007940010EE19F0480E006E010E016E4C0EF66E4E
:0E07A400070EF76E000EF86EF6EC02F0120073
:0B074C005573696E673A20486578001D
:0D0757005573696E673A204F6374616C0042
:0E0764005573696E673A2042696E61727900C2
:0F07720042792050656E6E792042656C6C65008F
:02078100F40181
:1007830043204E756D6265722053797374656D7382
:010793000065
:020000040030CA
:0D000100231F3CFFBF81FF0FC00FE00F4029
:00000001FF
