:0400000028EF03F0F2
:1000080000C016F001C015F0E9CF17F0EACF18F0DC
:10001800896A400EE96E000EEA6E3D50E926D8B0B6
:10002800EA2AEECF8CFF3BC089FF3BC001F00136C6
:10003800019001C03BF00150080802E2010E3B6E3E
:100048003D2A3D500308D8A03D6AD66AF29416C0EE
:1000580000F015C001F017C0E9FF18C0EAFF110051
:0A006800210E0D6E0D2EFED71200C2
:100072000F0E0C6E470E0D6E0D2EFED70C2EFCD7FA
:0600820000000000120066
:0600880000000000120060
:10008E000134083609360450085E0550D8A0053CE8
:10009E00095E003601360F0E0C6E01340836093635
:1000AE00045000A006D0085E0550D8A0053C095E9D
:1000BE0005D008260550D8B0053C09260036013675
:1000CE000C2EEBD700B006D0045008260550D8B041
:0800DE00053C09260000120098
:1000E60050BE02D08A9601D08A8650BC02D08A942D
:1000F60001D08A8450BA02D08A9201D08A8250B83E
:1001060002D08A9001D08A8046B002D08A8801D077
:100116008A988A8AB6DF8A9A50B602D08A9601D021
:100126008A8650B402D08A9401D08A8450B202D012
:100136008A9201D08A8250B002D08A9001D08A80F9
:1001460046B002D08A8801D08A988A8A9ADF8A9A2B
:0C01560046A002D08BDF01D084DF120035
:10016200220E0C6E086A096A0A6A0B6A0C06D8B477
:100172001FD0D8900B320A320932083203320232CF
:1001820001320032D8A0F2D70C06D8B409D00450FC
:1001920008260550092206500A2207500B22EAD7E8
:1001A200045008260550092206500A2207500B2245
:0201B200120039
:1001B4000450000A08E10550000A05E1FF0E006E34
:1001C4007F0E016E57D00D6A096A086A015000104B
:1001D400D8B4000C015005180A6E0ABE0D1E0B6A35
:1001E40005AE05D0041E051E042AD8B4052A01AEA6
:1001F40005D0001E011E002AD8B4012A01500510A2
:100204000A6E0ABE10D041DF0BB020D00DAE000C38
:10021400001E011E002AD8B4012A081E091E082A3D
:10022400D8B4092A000C05AE0DD001BE07D0015088
:10023400096E0050086E016A006AE8D7016A006A14
:10024400002A000C011E001E0B2ADDD7082AD8B490
:10025400092A0450085CD8A4D9D70550095CD8A44D
:10026400D5D7096A086A002AD8B4012A01AECED7C4
:060274000000FF0C120067
:0C027A0046904FC050F032DF468012006A
:100286001ED03F0E006E39D0060E006E36D05B0EC5
:10029600006E33D04F0E006E30D0660E006E2DD03D
:1002A6006D0E006E2AD07D0E006E27D0070E006EF2
:1002B60024D07F0E006E21D06F0E006E1ED04F50E0
:1002C600000ADFE04F50010ADFE04F50020ADFE08C
:1002D6004F50030ADFE04F50040ADFE04F50050A93
:1002E600DFE04F50060ADFE04F50070ADFE04F50CD
:0C02F600080ADFE04F50090ADFE01200A8
:10030200086A096A100E0C6E013408360936045068
:10031200085E0550D8A0053C095ED8B007D004504D
:1003220008260550D8B0053C0926D890003601367B
:060332000C2EEAD71200B8
:100338000FD0800E496E19D0C00E496E16D0940E9B
:10034800496E13D0D40E496E10D0800E496E0DD070
:100358004950010AEEE04950020AEEE04950030A0A
:10036800EEE04950040AEEE0F0D74A04006E495026
:10037800002600C049F000C050F0B1DE46904D6A3A
:100388004D504B24E96E000E4C20EA6EEE520BE005
:100398004D504B24E96E000E4C20EA6EEECF4FF024
:0A03A80068DF4D2AEDD746801200F1
:1003B200939A939893909392939493968A9A8A9805
:1003C2008A968A948A928A9053DE52DE51DE8A821B
:1003D2008A808A8A58DE8A9A4BDE8A8A54DE8A9A10
:1003E20047DE8A8A50DE8A9A43DE8A908A8A4BDE08
:1003F2008A9A3EDE8A8A47DE8A9A8A928A868A8A1E
:1004020042DE8A9A35DE8A968A808A8A3CDE8A9A17
:100412008A908A8A38DE8A9A2BDE8A8A34DE8A9A1F
:100422008A808A8A30DE8A9A23DE8A908A8A2BDE42
:100432008A9A8A868A848A828A808A8A24DE8A9A28
:0604420017DE46801200E7
:10044800D00E4B6E070E4C6E000E4D6E4E6ED00EDB
:10045800006E070E016E000E026E000E036E49C09C
:1004680004F04AC005F0000E066E076E76DE00C086
:100478004BF001C04CF002C04DF003C04EF0000E2E
:10048800035C08E1000E025C05E1020E015C02E17A
:10049800940E005C01E231D0940E4B5E020E4C5A71
:1004A800000E4D5A4E5A050E006E005007E04E32AF
:1004B8004D324C324B324E9EFF0FF8D74BC000F0F6
:1004C8004CC001F04DC002F04EC003F0010E4B5E6F
:1004D800000E4C5A4D5A4E5A00500110021003108B
:1004E8000CE0000000000000000000000000000018
:0C04F8000000000000000000E1D712002E
:10050400E80E046E030E056E3EC000F03FC001F01D
:10051400F6DE00C044F001C045F000C04FF0B1DE8B
:1005240000C043F0640E046E000E056E3EC000F081
:100534003FC001F03DDE0A0E046E000E056E38DE8B
:1005440008C000F009C001F000C044F001C045F04B
:1005540000C04FF096DE00C042F00A0E046E000E9A
:10056400056E3EC000F03FC001F022DE0A0E046EAC
:10057400000E056E1DDE08C000F009C001F000C0C9
:1005840044F001C045F000C04FF07BDE00C041F0F4
:100594000A0E046E000E056E3EC000F03FC001F06E
:1005A40007DE08C000F009C001F000C044F001C03B
:0E05B40045F000C04FF065DE00C040F01200C0
:1005C2000900F5CFE6FF0006FBE10106F9E11200A2
:1005D2000F01396BEDDE010E506E84DD0C0E506E94
:0405E20081DD1200A5
:1005E60047C03EF048C03FF08ADF3EC082FF39C0B8
:0A05F60049F03AC04AF025DF120078
:10060000010E506E70DD010E496E010E4A6E47C03C
:100610004BF0000E4C6E90DE020E496E010E4A6EDB
:0C06200048C04BF0000E4C6E87DE12004C
:10062C000F01386B3B6B926A896A956A8C6AC40EAF
:10063C00D56ED66A446A456A3D6A010E3B6EF28EEF
:04064C00F28A12001C
:1006500067EC03F0BEDFEADF190E476E2A0E486E24
:10066000CFDF946A946A826A3C6A050E3C5C0CE2B5
:100670000F0E476E000E486EB6DFF00E476E000E8E
:10068000486EB1DF3C2AF1D73C6A050E3C5C0CE2B7
:10069000550E476E000E486EA6DFAA0E476E000E7E
:0C06A000486EA1DF3C2AF1D7DFD7FFD75E
:1006CE0010EE19F0220E006E010E016EAC0EF66EDB
:0E06DE00060EF76E000EF86EE1EC02F0120050
:1006AC0043204E756D6265722053797374656D735A
:0106BC00003D
:0F06BD0042792050656E6E792042656C6C650045
:0206CC00F40137
:020000040030CA
:0D000100231F3CFFBF81FF0FC00FE00F4029
:00000001FF
