:040000002FEF03F0EB
:1000080000C016F001C015F0E9CF17F0EACF18F0DC
:10001800896A5F0EE96E000EEA6E5E50E926D8B076
:10002800EA2AEECF8CFF5DC089FF5DC001F0013682
:10003800019001C05DF00150080802E2010E5D6EFA
:100048005E2A5E500308D8A05E6AD66AF29416C08B
:1000580000F015C001F017C0E9FF18C0EAFF110051
:0A006800210E0D6E0D2EFED71200C2
:100072000F0E0C6E470E0D6E0D2EFED70C2EFCD7FA
:0600820000000000120066
:0600880000000000120060
:10008E000134083609360450085E0550D8A0053CE8
:10009E00095E003601360F0E0C6E01340836093635
:1000AE00045000A006D0085E0550D8A0053C095E9D
:1000BE0005D008260550D8B0053C09260036013675
:1000CE000C2EEBD700B006D0045008260550D8B041
:0800DE00053C09260000120098
:1000E60000016CBF02D08A9601D08A866CBD02D010
:1000F6008A9401D08A846CBB02D08A9201D08A820B
:100106006CB902D08A9001D08A8058B002D08A8811
:1001160001D08A988A8AB5DF8A9A6CB702D08A9605
:1001260001D08A866CB502D08A9401D08A846CB3D9
:1001360002D08A9201D08A826CB102D08A9001D014
:100146008A8058B002D08A8801D08A988A8A99DF34
:0E0156008A9A58A002D08ADF01D083DF1200FF
:10016400220E0C6E086A096A0A6A0B6A0C06D8B475
:100174001FD0D8900B320A320932083203320232CD
:1001840001320032D8A0F2D70C06D8B409D00450FA
:1001940008260550092206500A2207500B22EAD7E6
:1001A400045008260550092206500A2207500B2243
:0201B400120037
:1001B6000450000A08E10550000A05E1FF0E006E32
:1001C6007F0E016E57D00D6A096A086A0150001049
:1001D600D8B4000C015005180A6E0ABE0D1E0B6A33
:1001E60005AE05D0041E051E042AD8B4052A01AEA4
:1001F60005D0001E011E002AD8B4012A01500510A0
:100206000A6E0ABE10D040DF0BB020D00DAE000C37
:10021600001E011E002AD8B4012A081E091E082A3B
:10022600D8B4092A000C05AE0DD001BE07D0015086
:10023600096E0050086E016A006AE8D7016A006A12
:10024600002A000C011E001E0B2ADDD7082AD8B48E
:10025600092A0450085CD8A4D9D70550095CD8A44B
:10026600D5D7096A086A002AD8B4012A01AECED7C2
:060276000000FF0C120065
:0C027C0058906BC06CF031DF588012000D
:100288001ED03F0E006E3AD0060E006E37D05B0EC1
:10029800006E34D04F0E006E31D0660E006E2ED038
:1002A8006D0E006E2BD07D0E006E28D0070E006EEE
:1002B80025D07F0E006E22D06F0E006E1FD0000179
:1002C8006B51000ADEE06B51010ADEE06B51020A55
:1002D800DEE06B51030ADEE06B51040ADEE06B518D
:1002E800050ADEE06B51060ADEE06B51070ADEE024
:0E02F8006B51080ADEE06B51090ADEE01200CD
:10030600086A096A100E0C6E013408360936045064
:10031600085E0550D8A0053C095ED8B007D0045049
:1003260008260550D8B0053C0926D8900036013677
:060336000C2EEAD71200B4
:10033C0010D0800E0001656F1AD0C00E656F17D0FB
:10034C00940E656F14D0D40E656F11D0800E656F4E
:10035C000ED000016551010AECE06551020AEDE096
:10036C006551030AEDE06551040AEDE0EFD766052F
:10037C00006E6551002600C065F000C06CF0ADDE6B
:10038C005890696B69516725E96E000E6821EA6E19
:10039C00EE520BE069516725E96E000E6821EA6E9A
:0E03AC00EECF6BF065DF692BEDD758801200A5
:1003BA00939A939893909392939493968A9A8A98FD
:1003CA008A968A948A928A904FDE4EDE4DDE8A821F
:1003DA008A808A8A54DE8A9A47DE8A8A50DE8A9A14
:1003EA0043DE8A8A4CDE8A9A3FDE8A908A8A47DE10
:1003FA008A9A3ADE8A8A43DE8A9A8A928A868A8A1E
:10040A003EDE8A9A31DE8A968A808A8A38DE8A9A1B
:10041A008A908A8A34DE8A9A27DE8A8A30DE8A9A23
:10042A008A808A8A2CDE8A9A1FDE8A908A8A27DE46
:10043A008A9A8A868A848A828A808A8A20DE8A9A24
:06044A0013DE58801200D1
:10045000D00E0001676F070E686F000E696F6A6F3C
:10046000D00E006E070E016E000E026E000E036EBF
:1004700065C004F066C005F0000E066E076E72DE01
:1004800000C067F001C068F002C069F003C06AF004
:10049000000E035C08E1000E025C05E1020E015C47
:1004A00002E1940E005C01E231D0940E675F020E0F
:1004B000685B000E695B6A5B050E006E005007E02A
:1004C0006A336933683367336A9FFF0FF8D767C0B1
:1004D00000F068C001F069C002F06AC003F0010ECC
:1004E000675F000E685B695B6A5B00500110021079
:1004F00003100CE0000000000000000000000000FD
:0E05000000000000000000000000E1D7120023
:10050E00E80E046E030E056E5BC000F05CC001F0D9
:10051E00F3DE00C059F001C05AF000C06BF0ADDE42
:10052E0000C062F0640E046E000E056E5BC000F03B
:10053E005CC001F039DE0A0E046E000E056E34DE6C
:10054E0008C000F009C001F000C059F001C05AF017
:10055E0000C06BF092DE00C061F00A0E046E000E59
:10056E00056E5BC000F05CC001F01EDE0A0E046E6C
:10057E00000E056E19DE08C000F009C001F000C0C3
:10058E0059F001C05AF000C06BF077DE00C060F089
:10059E000A0E046E000E056E5BC000F05CC001F02A
:1005AE0003DE08C000F009C001F000C059F001C020
:0E05BE005AF000C06BF061DE00C05FF012006A
:1005CC000900F5CFE6FF0006FBE10106F9E1120098
:1005DC000F01396BECDE010E00016C6F7EDD0C0E31
:0605EC006C6F7BDD1200C4
:1005F20063C05BF064C05CF063C082FF87DF3EC013
:0A06020065F03FC066F023DF120030
:10060C00010E00016C6F69DD010E656F010E666FE6
:10061C0063C067F0000E686F8BDE020E656F010E13
:0E062C00666F64C067F0000E686F82DE120019
:10063A000F01386B3B6B926A896A956A8C6AC40EA1
:10064A00D56ED66A596A5A6A5E6A010E5D6EF28E74
:04065A00F28A12000E
:10065E00A8EC03F0BCDFEADF280E0001636F190E71
:10066E00646FCDDF946A826A3CC063F03DC064F073
:10067E00B9DF3AC063F03BC064F0B4DF38C063F05A
:10068E0039C064F0AFDF50C063F051C064F0AADF30
:10069E004EC063F04FC064F0A5DF4CC063F04DC098
:1006AE0064F0A0DF56C063F057C064F09BDF54C007
:1006BE0063F055C064F096DF52C063F053C064F02F
:1006CE0091DF44C063F045C064F08CDF42C063F03C
:1006DE0043C064F087DF40C063F041C064F082DF46
:1006EE004AC063F04BC064F07DDF48C063F049C080
:1006FE0064F078DF46C063F047C064F073DFB4D7B0
:02070E00FFD713
:1007500010EE19F03F0E006E010E016E100EF66ED7
:0E076000070EF76E000EF86EE6EC02F01200C7
:0F07100042792050656E6E792042656C6C6500F1
:10071F0053686F772042696E6172792056616C0061
:02072F00AA001E
:02073100810045
:02073300FF00C5
:0207350010278B
:02073700AA0016
:02073900550069
:02073B000F00AD
:02073D00810039
:02073F00AB000D
:02074100FE00B8
:02074300AA000A
:0207450055005D
:02074700370079
:02074900F000BE
:02074B00FF00AD
:02074D00550055
:020000040030CA
:0D000100231F3CFFBF81FF0FC00FE00F4029
:00000001FF
