:10000000C5EF01F00000000000EF00F0000000006C
:0A0010000000000000000000F3D71C
:10001C000F0E0C6E470E0D6E0D2EFED70C2EFCD750
:06002C00000000001200BC
:0A003200210E0D6E0D2EFED71200F8
:06003C00000000001200AC
:1000420041BE02D08A9601D08A8641BC02D08A94EF
:1000520001D08A8441BA02D08A9201D08A8241B800
:1000620002D08A9001D08A8034B002D08A8801D02E
:100072008A988A8AE2DF8A9A41B602D08A9601D0A9
:100082008A8641B402D08A9401D08A8441B202D0D5
:100092008A9201D08A8241B002D08A9001D08A80AD
:1000A20034B002D08A8801D08A988A8AC6DF8A9AB6
:0C00B20034A002D0B2DF01D0BBDF12008E
:1000BE00220E0C6E086A096A0A6A0B6A0C06D8B41C
:1000CE001FD0D8900B320A32093208320332023274
:1000DE0001320032D8A0F2D70C06D8B409D00450A1
:1000EE0008260550092206500A2207500B22EAD78D
:1000FE00045008260550092206500A2207500B22EA
:02010E001200DD
:0C011000349040C041F095DF34801200B4
:10011C00D00E3C6E070E3D6E000E3E6E3F6ED00E46
:10012C00006E070E016E000E026E000E036E3AC0DA
:10013C0004F03BC005F0000E066E076EBADF00C07F
:10014C003CF001C03DF002C03EF003C03FF0000E99
:10015C00035C08E1000E025C05E1020E015C02E1A9
:10016C00940E005C01E231D0940E3C5E020E3D5ABE
:10017C00000E3E5A3F5A050E006E005007E03F320B
:10018C003E323D323C323F9EFF0FF8D73CC000F070
:10019C003DC001F03EC002F03FC003F0010E3C5EDA
:1001AC00000E3D5A3E5A3F5A0050011002100310E7
:1001BC000CE0000000000000000000000000000047
:0C01CC000000000000000000E1D712005D
:1001D8000FD0800E3A6E19D0C00E3A6E16D0940E1B
:1001E8003A6E13D0D40E3A6E10D0800E3A6E0DD0FF
:1001F8003A50010AEEE03A50020AEEE03A50030A99
:10020800EEE03A50040AEEE0F0D73B04006E3A50B4
:10021800002600C03AF000C041F00FDF34903E6A7B
:100228003E503C24E96E000E3D20EA6EEE520BE093
:100238003E503C24E96E000E3D20EA6EEECF40F0C1
:0A02480063DF3E2AEDD73480120078
:10025200939A939893909392939493968A9A8A9866
:100262008A968A948A928A90D8DED7DED6DE8A82ED
:100272008A808A8AE2DE8A9AD0DE8A8ADEDE8A9AD8
:10028200CCDE8A8ADADE8A9AC8DE8A908A8AD5DE4B
:100292008A9AC3DE8A8AD1DE8A9A8A928A868A8A70
:1002A200CCDE8A9ABADE8A968A808A8AC6DE8A9AE0
:1002B2008A908A8AC2DE8A9AB0DE8A8ABEDE8A9AE8
:1002C2008A808A8ABADE8A9AA8DE8A908A8AB5DE0B
:1002D2008A9A8A868A848A828A808A8AAEDE8A9A00
:0602E2009CDE34801200D6
:1002E8000F01396BB2DF010E416EA7DE0C0E416EB5
:0402F800A4DE12006E
:1002FC000900F5CFE6FF0006FBE10106F9E112006B
:10030C0036C082FF38C03AF039C03BF001DF120032
:10031C0036C082FF0B0E0B6E260E0C6E5D0E0D6E34
:10032C000D2EFED70C2EFCD70B2EFAD7000000009A
:10033C0038C082FF0B0E0B6E260E0C6E5D0E0D6E12
:10034C000D2EFED70C2EFCD70B2EFAD7000000007A
:02035C0012008D
:10035E00010E416E6FDE010E3A6E010E3B6E36C01F
:10036E003CF0000E3D6E31DF020E3A6E010E3B6E1A
:0C037E0037C03CF0000E3D6E28DF12007E
:10038A0063EC02F0ACDF240E366E150E376EE2DF38
:10039A00FF0E956E0F013B6B836A946A826A63D083
:1003AA00550E366E000E376EB80E386E0B0E396E5D
:1003BA00A8DF72D0AA0E366E000E376EB80E386EEF
:1003CA000B0E396E9EDF68D0F00E366E000E376E59
:1003DA00D00E386E070E396E94DF5ED0FF0E366E81
:1003EA00000E376E386A396A94DF56D0AA0E366E16
:1003FA00000E376E550E386E000E396E8ADF4CD0FD
:10040A00F00E366E000E376E0F0E386E000E396E15
:10041A0080DF42D0810E826E1F0E0B6E710E0C6E43
:10042A001E0E0D6E0D2EFED70C2EFCD70B2EFAD7F4
:10043A00000032D0356AFF0E355C12E235C082FF09
:10044A00060E0B6E130E0C6EAD0E0D6E0D2EFED734
:10045A000C2EFCD70B2EFAD700000000352AEBD75A
:10046A001BD0826A19D08350010A9AE08350020A8B
:10047A00A1E08350040AA8E08350080AAFE0835041
:10048A00100AB4E08350200ABBE08350400AC2E05D
:0C049A008350800ACFE0E5D782D7FFD75F
:1004C60010EE15F01F0E006E010E016EA60EF66EF2
:0E04D600040EF76E000EF86E7EEC01F01200C0
:0F04A60042792050656E6E792042656C6C65005E
:1004B500436173652053746174656D656E74730073
:020000040030CA
:0D000100231F3CFFBF81FF0FC00FE00F4029
:00000001FF
