:10000000D7EF00F00000000000EF00F0000000005B
:0A0010000000000000000000F3D71C
:10001C00FF0E836E0B0E0B6E260E0C6E5D0E0D6EB0
:10002C000D2EFED70C2EFCD70B2EFAD7000000009D
:10003C00836A0B0E0B6E260E0C6E5D0E0D6E0D2E66
:10004C00FED70C2EFCD70B2EFAD7000000001200A6
:10005C00550E816E0B0E0B6E260E0C6E5D0E0D6E1C
:10006C000D2EFED70C2EFCD70B2EFAD7000000005D
:10007C00816A0B0E0B6E260E0C6E5D0E0D6E0D2E28
:10008C00FED70C2EFCD70B2EFAD700000000120066
:10009C00FF0E816E0B0E0B6E260E0C6E5D0E0D6E32
:1000AC000D2EFED70C2EFCD70B2EFAD7000000001D
:1000BC00816A0B0E0B6E260E0C6E5D0E0D6E0D2EE8
:1000CC00FED70C2EFCD70B2EFAD700000000120026
:1000DC00FF0E826E0B0E0B6E260E0C6E5D0E0D6EF1
:1000EC000D2EFED70C2EFCD70B2EFAD700000000DD
:1000FC00826A0B0E0B6E260E0C6E5D0E0D6E0D2EA7
:10010C00FED70C2EFCD70B2EFAD7000000001200E5
:0E011C00936A946A956A816A826A836A120005
:10012A00550E836E0B0E0B6E260E0C6E5D0E0D6E4B
:10013A000D2EFED70C2EFCD70B2EFAD7000000008E
:10014A00AA0E836E0B0E0B6E260E0C6E5D0E0D6ED6
:10015A000D2EFED70C2EFCD70B2EFAD7000000006E
:04016A00836A120092
:10016E00AA0E826E0B0E0B6E260E0C6E5D0E0D6EB3
:10017E000D2EFED70C2EFCD70B2EFAD7000000004A
:10018E00826A0B0E0B6E260E0C6E5D0E0D6E0D2E14
:10019E00FED70C2EFCD70B2EFAD700000000120053
:1001AE00B6DFBCDFDDDF53DF32DF91DF70DFF8D784
:0201BE00FFD769
:020000040030CA
:0D000100231F3CFFBF81FF0FC00FE00F4029
:00000001FF
