:10000000ABEF00F00000000000EF00F00000000087
:0A0010000000000000000000F3D71C
:10001C00800E016E000E026E800E0218006E800EB5
:10002C00005C02E1010E015C1BE301C082FF030EC8
:10003C000B6E8A0E0C6E550E0D6E0D2EFED70C2E01
:10004C00FCD70B2EFAD70000000002320132029EC0
:10005C0002BC028E02AE03D002E3014A022ADCD7B4
:02006C00120080
:10006E00010E016E000E026E800E006E800E0218E2
:10007E00005C02E10150800814E301C083FF030E0F
:10008E000B6E8A0E0C6E550E0D6E0D2EFED70C2EAF
:10009E00FCD70B2EFAD70000000001360190023675
:0400AE00E3D7120082
:1000B200800E016E000E026E800E0218006E800E1F
:1000C200005C02E1010E015C1BE301C083FF030E31
:1000D2000B6E8A0E0C6E550E0D6E0D2EFED70C2E6B
:1000E200FCD70B2EFAD70000000002320132029E2A
:1000F20002BC028E02AE03D002E3014A022ADCD71E
:020102001200E9
:0E010400936A946A956A816A826A836A12001D
:10011200010E016E000E026E800E006E800E02183D
:10012200005C02E10150800814E301C082FF030E6B
:100132000B6E8A0E0C6E550E0D6E0D2EFED70C2E0A
:10014200FCD70B2EFAD700000000013601900236D0
:04015200E3D71200DD
:10015600D6DFDCDF60DFD3DF87DFA8DFD0DFA6DF17
:0C01660083DFCDDF58DFD2DFF3D7FFD7F7
:020000040030CA
:0D000100231F3CFFBF81FF0FC00FE00F4029
:00000001FF
