:1000000076EF02F00000000000EF00F000000000BA
:0A0010000000000000000000F3D71C
:0A001C00210E0D6E0D2EFED712000E
:100026000F0E0C6E470E0D6E0D2EFED70C2EFCD746
:06003600000000001200B2
:06003C00000000001200AC
:10004200000184BF02D08A9601D08A8684BD02D084
:100052008A9401D08A8484BB02D08A9201D08A8297
:1000620084B902D08A9001D08A807BB102D08A887A
:1000720001D08A988A8AE1DF8A9A84B702D08A9666
:1000820001D08A8684B502D08A9401D08A8484B34E
:1000920002D08A9201D08A8284B102D08A9001D0A1
:1000A2008A807BB102D08A8801D08A988A8AC5DF89
:0E00B2008A9A7BA102D0B6DF01D0AFDF120028
:0E00C00000017B9183C084F0BCDF7B811200C5
:1000CE0010D0800E00017E6F1AD0C00E7E6F17D03A
:1000DE00940E7E6F14D0D40E7E6F11D0800E7E6F74
:1000EE000ED000017E51010AECE07E51020AEDE0D5
:1000FE007E51030AEDE07E51040AEDE0EFD77F0555
:10010E00006E7E51002600C07EF000C084F092DFAB
:10011E007B91826B82518025E96E000E8121EA6E01
:10012E00EE520BE082518025E96E000E8121EA6EBF
:0E013E00EECF83F0BEDF822BEDD77B81120067
:10014C00939A939893909392939493968A9A8A986D
:10015C008A968A948A928A9060DF5FDF5EDF8A8259
:10016C008A808A8A65DF8A9A58DF8A8A61DF8A9A4E
:10017C0054DF8A8A5DDF8A9A50DF8A908A8A58DF38
:10018C008A9A4BDF8A8A54DF8A9A8A928A868A8A6A
:10019C004FDF8A9A42DF8A968A808A8A49DF8A9A56
:1001AC008A908A8A45DF8A9A38DF8A8A41DF8A9A5E
:1001BC008A808A8A3DDF8A9A30DF8A908A8A38DF81
:1001CC008A9A8A868A848A828A808A8A31DF8A9A83
:0801DC0024DF00017B81120009
:1001E400020E0001796F000E7A6F800E006E800E91
:1001F4007A19005C02E17951800815E379C082FF25
:10020400060E0B6E130E0C6EAD0E0D6E0D2EFED77C
:100214000C2EFCD70B2EFAD700000000020E792713
:10022400000E7A23E2D7800E796F000E7A6F800E6B
:100234007A19006E800E005C02E1020E795D15E30E
:1002440079C082FF060E0B6E130E0C6EAD0E0D6E92
:100254000D2EFED70C2EFCD70B2EFAD70000000073
:0C026400020E795F000E7A5BE2D71200F8
:10027000010E0001796F000E7A6F800E006E800E05
:100280007A19005C02E179517F0815E379C082FF99
:10029000060E0B6E130E0C6EAD0E0D6E0D2EFED7F0
:1002A0000C2EFCD70B2EFAD700000000020E792787
:1002B000000E7A23E2D77F0E796F000E7A6F800EE0
:1002C0007A19006E800E005C02E1010E795D15E383
:1002D00079C082FF060E0B6E130E0C6EAD0E0D6E06
:1002E0000D2EFED70C2EFCD70B2EFAD700000000E7
:0C02F000020E795F000E7A5BE2D712006C
:1002FC00010E0001796F000E7A6F800E006E800E79
:10030C007A19005C02E17951800815E379C082FF0B
:10031C00060E0B6E130E0C6EAD0E0D6E0D2EFED763
:10032C000C2EFCD70B2EFAD700000000020E7927FA
:10033C00000E7A23E2D7800E796F000E7A6F800E52
:10034C007A19006E800E005C02E1010E795D1BE3F0
:10035C0079C082FF060E0B6E130E0C6EAD0E0D6E79
:10036C000D2EFED70C2EFCD70B2EFAD7000000005A
:10037C007A3379337A9F7ABD7A8F7AAF03D002E3DE
:08038C00794B7A2BDCD712003B
:100394000F01396BD9DE010E846F51DE0C0E846FB0
:0403A4004EDE120017
:1003A8000900F5CFE6FF0006FBE10106F9E11200BE
:1003B800010E0001846F41DE010E7E6F010E7F6F1A
:1003C8007CC080F0000E816F7EDE020E7E6F010E13
:0E03D8007F6F7DC080F0000E816F75DE120019
:1003E600010E0001796F000E7A6F800E006E800E8E
:1003F6007A19005C02E17951800811E379C082FF25
:10040600050E0B6EC30E0C6E290E0D6E0D2EFED74D
:100416000C2EFCD70B2EFAD7794B7A2BE6D7120087
:10042600800E0001796F000E7A6F800E7A19006EC9
:10043600800E005C02E1010E795D13E379C082FF54
:10044600050E0B6EC30E0C6E290E0D6E0D2EFED70D
:100456000C2EFCD70B2EFAD7010E795F000E7A5BB5
:04046600E4D71200C5
:10046A00010E0001796F000E7A6F800E006E800E09
:10047A007A19005C02E1795180080FE379C082FFA2
:10048A00150E0C6EC60E0D6E0D2EFED70C2EFCD759
:10049A000000793779917A37E8D7800E796F000EA4
:1004AA007A6F800E7A19006E800E005C02E1010EEE
:1004BA00795D16E379C082FF150E0C6EC60E0D6EBD
:1004CA000D2EFED70C2EFCD700007A3379337A9F93
:1004DA007ABD7A8F7AAF03D002E3794B7A2BE1D7D0
:0204EA001200FE
:1004EC0035EC03F051DF3E0E7C6F2F0E7D6F5EDF1F
:1004FC00946A826A150E0B6E4B0E0C6EBE0E0D6E50
:10050C000D2EFED70C2EFCD70B2EFAD70000826ACC
:10051C003E0E7C6F150E7D6F49DFEADE826A150E8A
:10052C000B6E4B0E0C6EBE0E0D6E0D2EFED70C2EE2
:10053C00FCD70B2EFAD700003E0E7C6F250E7D6F7C
:10054C0035DF4BDF150E0B6E4B0E0C6EBE0E0D6EAB
:10055C000D2EFED70C2EFCD70B2EFAD700003E0E1C
:10056C007C6F4B0E7D6F22DF58DF150E0B6E4B0E22
:10057C000C6EBE0E0D6E0D2EFED70C2EFCD70B2E58
:10058C00FAD700003E0E7C6F610E7D6F0FDF67DFC8
:10059C00150E0B6E4B0E0C6EBE0E0D6E0D2EFED789
:1005AC000C2EFCD70B2EFAD700003E0E7C6F6E0E75
:1005BC007D6FFCDE11DE150E0B6E4B0E0C6EBE0E3F
:1005CC000D6E0D2EFED70C2EFCD70B2EFAD700007D
:1005DC003E0E7C6F570E7D6FE9DE44DE150E0B6E02
:1005EC004B0E0C6EBE0E0D6E0D2EFED70C2EFCD7C8
:0A05FC000B2EFAD700008BD7FFD7B3
:10066A0010EE15F0640E006E010E016E060EF66EA7
:0E067A00060EF76E000EF86ED4EC01F01200C2
:1006060044656661756C74205061747465726E0021
:0A06160042696E6172792055700090
:0F06200042792050656E6E792042656C6C6500E2
:0D062F00466F72204C6F6F70732121210007
:0C063C0042696E61727920446F776E0095
:0A0648004F6E6C79204F646473005C
:0D0652004B6E696768742052696465720020
:0B065F004F6E6C79204576656E7300CD
:020000040030CA
:0D000100231F3CFFBF81FF0FC00FE00F4029
:00000001FF
