:040000006CEF03F0AE
:1000080000C016F001C015F0E9CF17F0EACF18F0DC
:10001800896A650EE96E000EEA6E00016951E926EB
:10002800D8B0EA2AEECF8CFF6BC089FF6BC001F015
:100038000136019001C06BF00150080802E2010E80
:100048006B6F692B69510308D8A0696BD66AF29463
:1000580016C000F015C001F017C0E9FF18C0EAFF8C
:02006800110085
:0A006A00210E0D6E0D2EFED71200C0
:100074000F0E0C6E470E0D6E0D2EFED70C2EFCD7F8
:0600840000000000120064
:06008A000000000012005E
:10009000000175BF02D08A9601D08A8675BD02D054
:1000A0008A9401D08A8475BB02D08A9201D08A8258
:1000B00075B902D08A9001D08A806AB102D08A884C
:1000C00001D08A988A8AE1DF8A9A75B702D08A9627
:1000D00001D08A8675B502D08A9401D08A8475B31E
:1000E00002D08A9201D08A8275B102D08A9001D062
:1000F0008A806AB102D08A8801D08A988A8AC5DF4C
:0E0100008A9A6AA102D0B6DF01D0AFDF1200EA
:10010E00220E0C6E086A096A0A6A0B6A0C06D8B4CB
:10011E001FD0D8900B320A32093208320332023223
:10012E0001320032D8A0F2D70C06D8B409D0045050
:10013E0008260550092206500A2207500B22EAD73C
:10014E00045008260550092206500A2207500B2299
:02015E0012008D
:0E01600000016A9174C075F093DF6A8112008D
:10016E000134083609360450085E0550D8A0053C07
:10017E00095E003601360F0E0C6E01340836093654
:10018E00045000A006D0085E0550D8A0053C095EBC
:10019E0005D008260550D8B0053C09260036013694
:1001AE000C2EEBD700B006D0045008260550D8B060
:0801BE00053C092600001200B7
:1001C600D00E0001706F070E716F000E726F736FA5
:1001D600D00E006E070E016E000E026E000E036E4C
:1001E6006EC004F06FC005F0000E066E076E8CDF61
:1001F60000C070F001C071F002C072F003C073F06D
:10020600000E035C08E1000E025C05E1020E015CD3
:1002160002E1940E005C01E231D0940E705F020E92
:10022600715B000E725B735B050E006E005007E09B
:100236007333723371337033739FFF0FF8D770C007
:1002460000F071C001F072C002F073C003F0010E3D
:10025600705F000E715B725B735B005001100210E1
:1002660003100CE000000000000000000000000089
:0E02760000000000000000000000E1D71200B0
:1002840010D0800E00016E6F1AD0C00E6E6F17D0A2
:10029400940E6E6F14D0D40E6E6F11D0800E6E6FEC
:1002A4000ED000016E51010AECE06E51020AEDE03D
:1002B4006E51030AEDE06E51040AEDE0EFD76F05CD
:1002C400006E6E51002600C06EF000C075F0DEDED8
:1002D4006A91726B72517025E96E000E7121EA6E9B
:1002E400EE520BE072517025E96E000E7121EA6E38
:0E02F400EECF74F033DF722BEDD76A8112006B
:100302001ED03F0E006E3AD0060E006E37D05B0E46
:10031200006E34D04F0E006E31D0660E006E2ED0BD
:100322006D0E006E2BD07D0E006E28D0070E006E73
:1003320025D07F0E006E22D06F0E006E1FD00001FE
:100342006E51000ADEE06E51010ADEE06E51020AD1
:10035200DEE06E51030ADEE06E51040ADEE06E5109
:10036200050ADEE06E51060ADEE06E51070ADEE0A3
:0E0372006E51080ADEE06E51090ADEE012004C
:100380000450000A08E10550000A05E1FF0E006E66
:100390007F0E016E57D00D6A096A086A015000107D
:1003A000D8B4000C015005180A6E0ABE0D1E0B6A67
:1003B00005AE05D0041E051E042AD8B4052A01AED8
:1003C00005D0001E011E002AD8B4012A01500510D4
:1003D0000A6E0ABE10D0CBDE0BB020D00DAE000CE2
:1003E000001E011E002AD8B4012A081E091E082A70
:1003F000D8B4092A000C05AE0DD001BE07D00150BB
:10040000096E0050086E016A006AE8D7016A006A46
:10041000002A000C011E001E0B2ADDD7082AD8B4C2
:10042000092A0450085CD8A4D9D70550095CD8A47F
:10043000D5D7096A086A002AD8B4012A01AECED7F6
:060440000000FF0C120099
:10044600086A096A100E0C6E013408360936045023
:10045600085E0550D8A0053C095ED8B007D0045008
:1004660008260550D8B0053C0926D8900036013636
:060476000C2EEAD7120073
:10047C00939A939893909392939493968A9A8A983A
:10048C008A968A948A928A90EFDDEEDDEDDD8A827F
:10049C008A808A8AF4DD8A9AE7DD8A8AF0DD8A9A74
:1004AC00E3DD8A8AECDD8A9ADFDD8A908A8AE7DDD1
:1004BC008A9ADADD8A8AE3DD8A9A8A928A868A8A1D
:1004CC00DEDD8A9AD1DD8A968A808A8AD8DD8A9A7C
:1004DC008A908A8AD4DD8A9AC7DD8A8AD0DD8A9A84
:1004EC008A808A8ACCDD8A9ABFDD8A908A8AC7DDA7
:1004FC008A9A8A868A848A828A808A8AC0DD8A9AC3
:08050C00B3DD00016A81120059
:100514004A5000016D1902E16C51491804E06CC0A5
:0805240049F06DC04AF012001D
:04052C00946A1200BB
:100530000900F5CFE6FF0006FBE10106F9E1120034
:100540000F01396B9BDF010E756FA2DD0C0E756F0D
:040550009FDD120019
:100554000F01386B3B6B926A896A956A8C6AC40E88
:10056400D56ED66A0001636B646B696B010E6B6FA9
:06057400F28EF28A120073
:10057A00010E496E000E4A6E150E0B6E4B0E0C6E76
:10058A00BE0E0D6E0D2EFED70C2EFCD70B2EFAD7F3
:04059A00000012004B
:10059E0049C082FF6CC06EF06DC06FF00DDE4A3246
:1005AE0049324A9E4ABC4A8E4AAE03D002E3494AB9
:0405BE004A2A1200B3
:1005C200E80E046E030E056E49C000F04AC001F049
:1005D20039DF00C063F001C064F000C06EF090DE4D
:1005E20000C068F0640E046E000E056E49C000F093
:1005F2004AC001F0C4DE0A0E046E000E056EBFDEB4
:1006020008C000F009C001F000C063F001C064F04E
:1006120000C06EF075DE00C067F00A0E046E000EB8
:10062200056E49C000F04AC001F0A9DE0A0E046E50
:10063200000E056EA4DE08C000F009C001F000C083
:1006420063F001C064F000C06EF05ADE00C066F0D4
:100652000A0E046E000E056E49C000F04AC001F099
:100662008EDE08C000F009C001F000C063F001C0D6
:0E06720064F000C06EF044DE00C065F01200BF
:10068000010E0001756F04DD010E6E6F010E6F6FBC
:100690006CC070F0000E716FF5DD020E6E6F010E12
:0E06A0006F6F6DC070F0000E716FECDD120018
:1006AE0049C082FF6CC06EF06DC06FF085DD4936BB
:0606BE0049904A361200CB
:1006C40049C082FF6CC06EF06DC06FF07ADD494A9C
:0406D4004A2A12009C
:1006D80044EC04F031DF3ADF25DF0001010E6C6FD6
:1006E800000E6D6F13DF5A0E6C6F4B0E6D6FC4DF0B
:1006F800800E006E800E4A18005C02E149508008A6
:1007080008E35BDFEE0E00016C6F020E6D6FCBDF4E
:10071800EFD7150E0B6E4B0E0C6EBE0E0D6E0D2E1A
:10072800FED70C2EFCD70B2EFAD70000800E6C6F6C
:10073800000E6D6FEBDE2A0E6C6F4B0E6D6F9CDF3B
:10074800800E4A18006E800E005C02E1010E495CC2
:1007580008E333DFEE0E00016C6F020E6D6F1BDFD6
:10076800EFD707DF190E6C6F4B0E6D6F85DF800EAC
:10077800006E800E3C18005C02E13B50000833E23A
:10078800010E6C6F000E6D6FC1DE800E006E800E64
:100798004A18005C02E14950800807E30EDF47C0B1
:1007A8006CF048C06DF07FDFF0D7800E4818006EFF
:1007B800800E005C02E1640E475C05E3640E475E50
:1007C800000E485A0BD0800E4818006E800E005C50
:1007D80002E1640E475C02E2476A486A010E3B5E2A
:1007E800000E3C5AC4D7F40E476E010E486EE80E50
:1007F8003B6E030E3C6EBDDE010E6C6F000E6D6F1E
:1008080085DE3D0E6C6F4B0E6D6F36DF800E4A181D
:10081800006E800E010A005C02E1000E495C08E2ED
:100828000001320E6C6F000E6D6F48DFC6DEEED72A
:06083800A0DE53D7FFD73C
:1008880010EE19F04A0E006E010E016E3E0EF66E65
:0E089800080EF76E000EF86E98EC02F01200DB
:10083E004269742057616C6B20537065642055704B
:01084E0000A9
:10084F0052657665727365204269742057616C6BCF
:01085F000098
:02086000E803AB
:0A08620042697420436C696D620066
:02086C00F40195
:02086E00010087
:0F08700042792050656E6E792042656C6C650090
:09087F004269742057616C6B00A2
:020000040030CA
:0D000100231F3CFFBF81FF0FC00FE00F4029
:00000001FF
