:100000000EEF00F00000000000EF00F00000000024
:0A0010000000000000000000F3D71C
:10001C00946A826AFF0E936E0F01396BAA0E156EED
:10002C00000E166E550E176E000E186E0F0E196E12
:10003C00000E1A6E17501514826E0B0E0B6E260ED8
:10004C000C6E5D0E0D6E0D2EFED70C2EFCD70B2EEE
:10005C00FAD70000000017501510826E0B0E0B6EB5
:10006C00260E0C6E5D0E0D6E0D2EFED70C2EFCD7D3
:10007C000B2EFAD70000000017501518826E0B0ECD
:10008C000B6E260E0C6E5D0E0D6E0D2EFED70C2E0D
:10009C00FCD70B2EFAD700000000191C826E0B0E39
:1000AC000B6E260E0C6E5D0E0D6E0D2EFED70C2EED
:0E00BC00FCD70B2EFAD700000000B0D7FFD7FC
:020000040030CA
:0D000100231F3CFFBF81FF0FC00FE00F4029
:00000001FF
