:10000000B2EF01F00000000000EF00F0000000007F
:0A0010000000000000000000F3D71C
:0A001C00210E0D6E0D2EFED712000E
:100026000F0E0C6E470E0D6E0D2EFED70C2EFCD746
:06003600000000001200B2
:06003C00000000001200AC
:1000420042BE02D08A9601D08A8642BC02D08A94ED
:1000520001D08A8442BA02D08A9201D08A8242B8FE
:1000620002D08A9001D08A8038B002D08A8801D02A
:100072008A988A8AE2DF8A9A42B602D08A9601D0A8
:100082008A8642B402D08A9401D08A8442B202D0D3
:100092008A9201D08A8242B002D08A9001D08A80AC
:1000A20038B002D08A8801D08A988A8AC6DF8A9AB2
:0C00B20038A002D0B7DF01D0B0DF120090
:0C00BE00389041C042F0BEDF38801200D4
:1000CA00220E0C6E086A096A0A6A0B6A0C06D8B410
:1000DA001FD0D8900B320A32093208320332023268
:1000EA0001320032D8A0F2D70C06D8B409D0045095
:1000FA0008260550092206500A2207500B22EAD781
:10010A00045008260550092206500A2207500B22DD
:02011A001200D1
:10011C00D00E3D6E070E3E6E000E3F6E406ED00E42
:10012C00006E070E016E000E026E000E036E3BC0D9
:10013C0004F03CC005F0000E066E076EC0DF00C078
:10014C003DF001C03EF002C03FF003C040F0000E95
:10015C00035C08E1000E025C05E1020E015C02E1A9
:10016C00940E005C01E231D0940E3D5E020E3E5ABC
:10017C00000E3F5A405A050E006E005007E0403208
:10018C003F323E323D32409EFF0FF8D73DC000F06B
:10019C003EC001F03FC002F040C003F0010E3D5ED6
:1001AC00000E3E5A3F5A405A0050011002100310E4
:1001BC000CE0000000000000000000000000000047
:0C01CC000000000000000000E1D712005D
:1001D8000FD0800E3B6E19D0C00E3B6E16D0940E19
:1001E8003B6E13D0D40E3B6E10D0800E3B6E0DD0FC
:1001F8003B50010AEEE03B50020AEEE03B50030A96
:10020800EEE03B50040AEEE0F0D73C04006E3B50B1
:10021800002600C03BF000C042F00FDF38903F6A74
:100228003F503D24E96E000E3E20EA6EEE520BE090
:100238003F503D24E96E000E3E20EA6EEECF41F0BD
:0A0248003ADF3F2AEDD7388012009C
:10025200939A939893909392939493968A9A8A9866
:100262008A968A948A928A90DDDEDCDEDBDE8A82DE
:100272008A808A8AE2DE8A9AD5DE8A8ADEDE8A9AD3
:10028200D1DE8A8ADADE8A9ACDDE8A908A8AD5DE41
:100292008A9AC8DE8A8AD1DE8A9A8A928A868A8A6B
:1002A200CCDE8A9ABFDE8A968A808A8AC6DE8A9ADB
:1002B2008A908A8AC2DE8A9AB5DE8A8ABEDE8A9AE3
:1002C2008A808A8ABADE8A9AADDE8A908A8AB5DE06
:1002D2008A9A8A868A848A828A808A8AAEDE8A9A00
:0602E200A1DE38801200CD
:1002E8000900F5CFE6FF0006FBE10106F9E112007F
:1002F8000F01396BAADF010E426E9FDE0C0E426EB3
:040308009CDE120065
:10030C0019C082FF39C03BF03AC03CF001DF17C086
:10031C0082FF39C03BF03AC03CF0FADE15C082FFD8
:0C032C0039C03BF03AC03CF0F3DE120098
:10033800010E426E82DE010E3B6E010E3C6E39C02C
:100348003DF0000E3E6E44DF020E3B6E010E3C6E29
:0C0358003AC03DF0000E3E6E3BDF12008C
:10036400FBEC01F0C7DF2A0E396E1B0E3A6EE2DF9A
:10037400FF0E966E0F013C6BFF0E956E3B6B946AFD
:10038400826A8450010A06E1E80E396E030E3A6E61
:10039400BBDF1BD08450020A06E1320E396E000E18
:1003A4003A6EB2DF12D083CF82FF825083180DE100
:1003B4008250000A0AE0340E0C6EF10E0D6E0D2E02
:0E03C400FED70C2EFCD700000000DBD7FFD7C1
:1003F60010EE15F0230E006E010E016ED20EF66E93
:0E040600030EF76E000EF86E74EC01F012009B
:0203D200040025
:0203D400020025
:0203D600010024
:0F03D80042792050656E6E792042656C6C65002D
:0E03E700524742204C454420496E7075740008
:020000040030CA
:0D000100231F3CFFBF81FF0FC00FE00F4029
:00000001FF
