:100000000EEF00F00000000000EF00F00000000024
:0A0010000000000000000000F3D71C
:10001C000F0E936E0F01396B816A946A826A826A41
:10002C00000E81B0010E046E056A000E81B2010E45
:10003C00066E076A000E81B4010E086E096A000E86
:10004C0081B6010E0E6E0F6A06500414026E055036
:10005C000714036E08500614006E07500914016E45
:10006C000E5000160F5001160050021201500312D0
:10007C0008500414006E05500914016E0050021251
:10008C0001500312000E031802E1010E021810E1D8
:10009C00010E826E0B0E0B6E260E0C6E5D0E0D6E2F
:1000AC000D2EFED70C2EFCD70B2EFAD7000000001D
:0400BC00B6D7FFD7DD
:020000040030CA
:0D000100231F3CFFBF81FF0FC00FE00F4029
:00000001FF
