:1000000035EF01F00000000000EF00F000000000FC
:0A0010000000000000000000F3D71C
:10001C000F0E0C6E470E0D6E0D2EFED70C2EFCD750
:06002C00000000001200BC
:06003200000000001200B6
:0A003800210E0D6E0D2EFED71200F2
:100042003CBE02D08A9601D08A863CBC02D08A94F9
:1000520001D08A843CBA02D08A9201D08A823CB80A
:1000620002D08A9001D08A8033B002D08A8801D02F
:100072008A988A8ADDDF8A9A3CB602D08A9601D0B3
:100082008A863CB402D08A9401D08A843CB202D0DF
:100092008A9201D08A823CB002D08A9001D08A80B2
:1000A20033B002D08A8801D08A988A8AC1DF8A9ABC
:0C00B20033A002D0B2DF01D0BEDF12008C
:0C00BE0033903BC03CF0BEDF33801200EA
:1000CA000FD0800E366E19D0C00E366E16D0940E32
:1000DA00366E13D0D40E366E10D0800E366E0DD01A
:1000EA003650010AEEE03650020AEEE03650030AB4
:1000FA00EEE03650040AEEE0F0D73704006E3650D0
:10010A00002600C036F000C03CF096DF33903A6A11
:10011A003A503824E96E000E3920EA6EEE520BE0AE
:10012A003A503824E96E000E3920EA6EEECF3BF0E1
:0A013A00C1DF3A2AEDD7338012002E
:10014400939A939893909392939493968A9A8A9875
:100154008A968A948A928A905FDF5EDF5DDF8A8264
:100164008A808A8A64DF8A9A57DF8A8A60DF8A9A59
:1001740053DF8A8A5CDF8A9A4FDF8A908A8A57DF44
:100184008A9A4ADF8A8A53DF8A9A8A928A868A8A74
:100194004EDF8A9A41DF8A968A808A8A48DF8A9A61
:1001A4008A908A8A44DF8A9A37DF8A8A40DF8A9A69
:1001B4008A808A8A3CDF8A9A2FDF8A908A8A37DF8C
:1001C4008A9A8A868A848A828A808A8A30DF8A9A8C
:0601D40023DF338012005E
:1001DA000F01396BB2DF010E3C6E2EDF0C0E3C6E46
:0401EA002BDF1200F5
:1001EE000900F5CFE6FF0006FBE10106F9E112007A
:1001FE00010E3C6E1FDF010E366E010E376E34C0DF
:10020E0038F0000E396E5ADF020E366E010E376E62
:0C021E0035C038F0000E396E51DF1200C0
:10022A00FF0E826E060E0B6E130E0C6EAD0E0D6E69
:10023A000D2EFED70C2EFCD70B2EFAD7000000008D
:10024A00826A060E0B6E130E0C6EAD0E0D6E0D2E1F
:10025A00FED70C2EFCD70B2EFAD700000000120096
:10026A00B6EC01F0B5DF150E346E220E356EC2DF24
:10027A00FF0E966E0F013C6BFF0E956E3B6B946AF8
:10028A00826A836A846A8450010A08E1000E32187D
:10029A0002E13150831802E1C3DF52D08450020ACE
:1002AA0008E1000E321802E13150831802E0B8DF8B
:1002BA0047D08450040A0BE1800E3218006E800E7B
:1002CA00005C02E18350315C02E2AADF39D084503B
:1002DA00080A0BE1800E006E800E3218005C02E103
:1002EA003150835C02E29CDF2BD08450100A0BE170
:1002FA00800E006E800E3218005C02E13150835C81
:10030A0002E38EDF1DD08450200A0BE1800E3218E2
:10031A00006E800E005C02E18350315C02E380DFF4
:10032A000FD0FF0E826E1F0E0B6E710E0C6E1E0E1C
:10033A000D6E0D2EFED70C2EFCD70B2EFAD7000011
:04034A009FD7FFD763
:10036C0010EE15F01E0E006E010E016E4E0EF66EA6
:0E037C00030EF76E000EF86EF7EC00F01200A4
:0D034E00436F6E646974696F6E616C7300BB
:0F035B0042792050656E6E792042656C6C6500AA
:02036A000F0082
:020000040030CA
:0D000100231F3CFFBF81FF0FC00FE00F4029
:00000001FF
