:1000000023EF01F00000000000EF00F0000000000E
:0A0010000000000000000000F3D71C
:06001C00000000001200CC
:100022000F0E0C6E470E0D6E0D2EFED70C2EFCD74A
:06003200000000001200B6
:0A003800210E0D6E0D2EFED71200F2
:10004200000160BF02D08A9601D08A8660BD02D0CC
:100052008A9401D08A8460BB02D08A9201D08A82BB
:1000620060B902D08A9001D08A8055B002D08A88C5
:1000720001D08A988A8AD1DF8A9A60B702D08A969A
:1000820001D08A8660B502D08A9401D08A8460B396
:1000920002D08A9201D08A8260B102D08A9001D0C5
:1000A2008A8055B002D08A8801D08A988A8AB5DFC0
:0E00B2008A9A55A002D0B4DF01D0BDDF120043
:0C00C00055905FC060F0BDDF558012005D
:1000CC000FD0800E5A6E19D0C00E5A6E16D0940EE8
:1000DC005A6E13D0D40E5A6E10D0800E5A6E0DD0AC
:1000EC005A50010AEEE05A50020AEEE05A50030A46
:1000FC00EEE05A50040AEEE0F0D75B04006E5A5062
:10010C00002600C05AF000C060F095DF55905E6A82
:10011C005E505C24E96E000E5D20EA6EEE520BE040
:10012C005E505C24E96E000E5D20EA6EEECF5FF04F
:0A013C00C1DF5E2AEDD755801200E6
:10014600939A939893909392939493968A9A8A9873
:100156008A968A948A928A9061DF60DF5FDF8A825C
:100166008A808A8A58DF8A9A59DF8A8A54DF8A9A6D
:1001760055DF8A8A50DF8A9A51DF8A908A8A4BDF56
:100186008A9A4CDF8A8A47DF8A9A8A928A868A8A7C
:1001960042DF8A9A43DF8A968A808A8A3CDF8A9A75
:1001A6008A908A8A38DF8A9A39DF8A8A34DF8A9A7D
:1001B6008A808A8A30DF8A9A31DF8A908A8A2BDFA0
:1001C6008A9A8A868A848A828A808A8A24DF8A9A96
:0601D60025DF5580120038
:1001DC00010E0001606F2FDF010E5A6E010E5B6E77
:1001EC0058C05CF0000E5D6E6BDF020E5A6E010E95
:0E01FC005B6E59C05CF0000E5D6E62DF12009B
:10020A000900F5CFE6FF0006FBE10106F9E112005D
:10021A000F01396B93DF010E0001606F0DDF0C0EC9
:06022A00606F0ADF120004
:100230005750561807E057C056F0220E586E57C058
:0602400059F0CCDF1200B2
:1002460099EC01F0E7DF220E586E3D0E596EC3DFC2
:100256003D0E566EFF0E966EFF0E956E946A826A7E
:100266000F013B6B3C6B1F0E0B6E710E0C6E1E0E60
:100276000D6E0D2EFED70C2EFCD70B2EFAD70000D6
:10028600826A845206E04C0E576ECFDF831C826E64
:100296002BD08350050A23E12D0E576EC6DFFF0EC5
:1002A600826E060E0B6E130E0C6EAD0E0D6E0D2EBF
:1002B600FED70C2EFCD70B2EFAD700000000826A60
:1002C600060E0B6E130E0C6EAD0E0D6E0D2EFED7BA
:1002D6000C2EFCD70B2EFAD70000000005D0150E09
:0C02E600576EA3DF83CF82FFCBD7FFD77A
:1003320010EE15F0400E006E010E016EF20EF66E1A
:0E034200020EF76E000EF86E05EC01F01200D0
:0D02F2004E6F7420496E766572746564006D
:0B02FF00494F20436F6E74726F6C005B
:10030A005370656369616C204F7574707574210050
:0F031A0042792050656E6E792042656C6C6500EB
:09032900496E766572746564008A
:020000040030CA
:0D000100231F3CFFBF81FF0FC00FE00F4029
:00000001FF
