:100000001AEF01F00000000000EF00F00000000017
:0A0010000000000000000000F3D71C
:06001C00000000001200CC
:100022000F0E0C6E470E0D6E0D2EFED70C2EFCD74A
:06003200000000001200B6
:0A003800210E0D6E0D2EFED71200F2
:10004200000168BF02D08A9601D08A8668BD02D0BC
:100052008A9401D08A8468BB02D08A9201D08A82B3
:1000620068B902D08A9001D08A805FB002D08A88B3
:1000720001D08A988A8AD1DF8A9A68B702D08A9692
:1000820001D08A8668B502D08A9401D08A8468B386
:1000920002D08A9201D08A8268B102D08A9001D0BD
:1000A2008A805FB002D08A8801D08A988A8AB5DFB6
:0E00B2008A9A5FA002D0B4DF01D0BDDF120039
:0C00C0005F9067C068F0BDDF5F80120039
:1000CC0010D0800E0001636F1AD0C00E636F17D072
:1000DC00940E636F14D0D40E636F11D0800E636FC7
:1000EC000ED000016351010AECE06351020AEDE00D
:1000FC006351030AEDE06351040AEDE0EFD76405A8
:10010C00006E6351002600C063F000C068F093DFFE
:10011C005F90606B60516525E96E000E6621EA6E9A
:10012C00EE520BE060516525E96E000E6621EA6E19
:0E013C00EECF67F0BFDF602BEDD75F801200C3
:10014A00939A939893909392939493968A9A8A986F
:10015A008A968A948A928A905FDF5EDF5DDF8A825E
:10016A008A808A8A56DF8A9A57DF8A8A52DF8A9A6F
:10017A0053DF8A8A4EDF8A9A4FDF8A908A8A49DF5A
:10018A008A9A4ADF8A8A45DF8A9A8A928A868A8A7C
:10019A0040DF8A9A41DF8A968A808A8A3ADF8A9A77
:1001AA008A908A8A36DF8A9A37DF8A8A32DF8A9A7F
:1001BA008A808A8A2EDF8A9A2FDF8A908A8A29DFA2
:1001CA008A9A8A868A848A828A808A8A22DF8A9A94
:0601DA0023DF5F8012002C
:1001E0000900F5CFE6FF0006FBE10106F9E1120088
:1001F0000F01396BAADF010E0001686F22DF0C0EC0
:06020000686F1FDF120011
:10020600010E0001686F1ADF010E636F010E646F45
:1002160061C065F0000E666F56DF020E636F010E59
:0E022600646F62C065F0000E666F4DDF12005F
:10023400B3EC02F0DBDF150E616F220E626FE1DFBB
:10024400FF0E956E0F013B6B836AFF0E966E3C6B3F
:10025400846A946A826A836A826A845217E0000E0E
:100264005B1802E184505A1811E00F013B6BFF0E3A
:10027400836E5C6A5D6A150E0001616F310E626FF8
:10028400C0DF84CF5AF0000E5B6E17D0000E5B18EF
:1002940002E184505A1811E00F013B6B836A010E8E
:1002A4005C6E000E5D6E150E0001616F3C0E626F98
:1002B400A8DF84CF5AF0000E5B6E016A83B0012A76
:1002C400000E5D1802E15C5001180FE146C082FF88
:1002D4001F0E0B6E710E0C6E1E0E0D6E0D2EFED7C4
:1002E4000C2EFCD70B2EFAD70000016A83B2012A28
:1002F400000E5D1802E15C5001180FE148C082FF56
:10030400150E0B6E4B0E0C6EBE0E0D6E0D2EFED723
:100314000C2EFCD70B2EFAD70000016A83B4012AF5
:10032400000E5D1802E15C50011820E14AC082FF12
:100334000B0E0B6E260E0C6E5D0E0D6E0D2EFED783
:100344000C2EFCD70B2EFAD7000000004CC082FF05
:100354000B0E0B6E260E0C6E5D0E0D6E0D2EFED763
:100364000C2EFCD70B2EFAD700000000016A83B6CE
:10037400012A000E5D1802E15C50011826E14EC00E
:1003840082FF060E0B6E130E0C6EAD0E0D6E0D2E4F
:10039400FED70C2EFCD70B2EFAD7000000005E6AA5
:1003A400030E5E5C12E250C082FF060E0B6E130E4B
:1003B4000C6EAD0E0D6E0D2EFED70C2EFCD70B2E33
:1003C400FAD7000000005E2AEBD7016A83B8012A3D
:1003D400000E5D1802E15C50011820E148C082FF64
:1003E400030E0B6E8A0E0C6E550E0D6E0D2EFED77F
:1003F4000C2EFCD70B2EFAD70000000046C082FF5B
:10040400030E0B6E8A0E0C6E550E0D6E0D2EFED75E
:100414000C2EFCD70B2EFAD700000000016A83BA19
:10042400012A000E5D1802E15C50011820E152C05F
:1004340082FF0B0E0B6E260E0C6E5D0E0D6E0D2ED6
:10044400FED70C2EFCD70B2EFAD70000000054C0A8
:1004540082FF0B0E0B6E260E0C6E5D0E0D6E0D2EB6
:10046400FED70C2EFCD70B2EFAD700000000016A31
:1004740083BC012A000E5D1802E15C50011820E1E2
:1004840056C082FF080E0B6E9D0E0C6E050E0D6E8F
:100494000D2EFED70C2EFCD70B2EFAD70000000031
:1004A40058C082FF080E0B6E9D0E0C6E050E0D6E6D
:1004B4000D2EFED70C2EFCD70B2EFAD70000000011
:1004C400016A83BE012A000E5D1802E15C50011826
:1004D40023E15E6A0A0E5E5C1FE25EC000F0000E5D
:1004E400016E003600900136460E0024E96E000EBF
:1004F4000120EA6EEECF82FF060E0B6E130E0C6E19
:10050400AD0E0D6E0D2EFED70C2EFCD70B2EFAD78A
:0C051400000000005E2ADED79ED6FFD754
:1005660010EE15F0450E006E010E016E200EF66EB1
:0E057600050EF76E000EF86EF0EC00F01200AD
:0D052000506F727420436F6E74726F6C0028
:0F052D0042792050656E6E792042656C6C6500D6
:0B053C004C6F67696320484947480086
:0A0547004C6F676963204C4F5700AA
:100551005500AA00F0000F00FF0000003300CC009E
:0405610081007E0097
:020000040030CA
:0D000100231F3CFFBF81FF0FC00FE00F4029
:00000001FF
