:0400000089EF03F091
:1000080000C016F001C015F0E9CF17F0EACF18F0DC
:10001800896A3B0EE96E000EEA6E4350E926D8B0B5
:10002800EA2AEECF8CFF41C089FF41C001F00136BA
:10003800019001C041F00150080802E2010E416E32
:10004800432A43500308D8A0436AD66AF29416C0DC
:1000580000F015C001F017C0E9FF18C0EAFF110051
:0A006800210E0D6E0D2EFED71200C2
:100072000F0E0C6E470E0D6E0D2EFED70C2EFCD7FA
:0600820000000000120066
:0600880000000000120060
:10008E00220E0C6E086A096A0A6A0B6A0C06D8B44C
:10009E001FD0D8900B320A320932083203320232A4
:1000AE0001320032D8A0F2D70C06D8B409D00450D1
:1000BE0008260550092206500A2207500B22EAD7BD
:1000CE00045008260550092206500A2207500B221A
:0200DE0012000E
:1000E0000134083609360450085E0550D8A0053C96
:1000F000095E003601360F0E0C6E013408360936E3
:10010000045000A006D0085E0550D8A0053C095E4A
:1001100005D008260550D8B0053C09260036013622
:100120000C2EEBD700B006D0045008260550D8B0EE
:08013000053C09260000120045
:1001380052BE02D08A9601D08A8652BC02D08A94D6
:1001480001D08A8452BA02D08A9201D08A8252B8E7
:1001580002D08A9001D08A8042B002D08A8801D029
:100168008A988A8A8DDF8A9A52B602D08A9601D0F6
:100178008A8652B402D08A9401D08A8452B202D0BC
:100188008A9201D08A8252B002D08A9001D08A80A5
:1001980042B002D08A8801D08A988A8A71DF8A9A06
:0C01A80042A002D062DF01D05BDF120039
:0C01B40042904CC052F0BEDF42801200AE
:1001C000D00E4E6E070E4F6E000E506E516ED00E5A
:1001D000006E070E016E000E026E000E036E4CC024
:1001E00004F04DC005F0000E066E076E50DF00C033
:1001F0004EF001C04FF002C050F003C051F0000EAD
:10020000035C08E1000E025C05E1020E015C02E104
:10021000940E005C01E231D0940E4E5E020E4F5AF5
:10022000000E505A515A050E006E005007E0513230
:1002300050324F324E32519EFF0FF8D74EC000F071
:100240004FC001F050C002F051C003F0010E4E5EED
:10025000000E4F5A505A515A00500110021003100C
:100260000CE00000000000000000000000000000A2
:0C0270000000000000000000E1D71200B8
:10027C000450000A08E10550000A05E1FF0E006E6B
:10028C007F0E016E57D00D6A096A086A0150001082
:10029C00D8B4000C015005180A6E0ABE0D1E0B6A6C
:1002AC0005AE05D0041E051E042AD8B4052A01AEDD
:1002BC0005D0001E011E002AD8B4012A01500510D9
:1002CC000A6E0ABE10D006DF0BB020D00DAE000CAB
:1002DC00001E011E002AD8B4012A081E091E082A75
:1002EC00D8B4092A000C05AE0DD001BE07D00150C0
:1002FC00096E0050086E016A006AE8D7016A006A4C
:10030C00002A000C011E001E0B2ADDD7082AD8B4C7
:10031C00092A0450085CD8A4D9D70550095CD8A484
:10032C00D5D7096A086A002AD8B4012A01AECED7FB
:06033C000000FF0C12009E
:100342001ED03F0E006E39D0060E006E36D05B0E08
:10035200006E33D04F0E006E30D0660E006E2DD080
:100362006D0E006E2AD07D0E006E27D0070E006E35
:1003720024D07F0E006E21D06F0E006E1ED04C5026
:10038200000ADFE04C50010ADFE04C50020ADFE0D5
:100392004C50030ADFE04C50040ADFE04C50050ADF
:1003A200DFE04C50060ADFE04C50070ADFE04C5019
:0C03B200080ADFE04C50090ADFE01200EE
:1003BE00086A096A100E0C6E0134083609360450AC
:1003CE00085E0550D8A0053C095ED8B007D0045091
:1003DE0008260550D8B0053C0926D89000360136BF
:0603EE000C2EEAD71200FC
:1003F400939A939893909392939493968A9A8A98C3
:100404008A968A948A928A9032DE31DE30DE8A823B
:100414008A808A8A37DE8A9A2ADE8A8A33DE8A9A30
:1004240026DE8A8A2FDE8A9A22DE8A908A8A2ADE49
:100434008A9A1DDE8A8A26DE8A9A8A928A868A8A1D
:1004440021DE8A9A14DE8A968A808A8A1BDE8A9A38
:100454008A908A8A17DE8A9A0ADE8A8A13DE8A9A40
:100464008A808A8A0FDE8A9A02DE8A908A8A0ADE63
:100474008A9A8A868A848A828A808A8A03DE8A9A07
:06048400F6DD42801200CB
:10048A000FD0800E476E19D0C00E476E16D0940E4C
:10049A00476E13D0D40E476E10D0800E476E0DD023
:1004AA004750010AEEE04750020AEEE04750030ABD
:1004BA00EEE04750040AEEE0F0D74804006E4750D9
:1004CA00002600C047F000C052F031DE42904B6A6D
:1004DA004B504924E96E000E4A20EA6EEE520BE0B8
:1004EA004B504924E96E000E4A20EA6EEECF4CF0DA
:0A04FA005CDE4B2AEDD742801200B1
:10050400E80E046E030E056E19C000F01AC001F067
:1005140054DF00C03FF001C040F000C04CF00FDFDA
:1005240000C03EF0640E046E000E056E19C000F0AB
:100534001AC001F0A1DE0A0E046E000E056E9CDEE8
:1005440008C000F009C001F000C03FF001C040F055
:1005540000C04CF0F4DE00C03DF00A0E046E000E44
:10056400056E19C000F01AC001F086DE0A0E046E92
:10057400000E056E81DE08C000F009C001F000C065
:100584003FF001C040F000C04CF0D9DE00C03CF0A8
:100594000A0E046E000E056E19C000F01AC001F0B8
:1005A4006BDE08C000F009C001F000C03FF001C0DC
:0E05B40040F000C04CF0C3DE00C03BF012006F
:1005C20019C082FF47C04CF048C04DF0F8DD193623
:0605D20019901A36120018
:1005D80019C082FF47C04CF048C04DF0EDDD1A321B
:1005E80019321A9E1ABC1A8E1AAE03D002E3194A9F
:0405F8001A2A1200A9
:1005FC000F01396BF9DE010E526E98DD0C0E526E46
:04060C0095DD120066
:100610000900F5CFE6FF0006FBE10106F9E1120053
:10062000376A386A465205E0100E396E270E3A6E68
:1006300004D00F0E396E000E3A6E38503A5C02E16B
:100640003750395C3DE3000E1A1802E1800E19188C
:1006500018E046520DE0800E4518006E800E005CDA
:1006600002E1140E445C04E3140E445E000E455A8D
:1006700049DF44C047F045C048F0A3DF374A382A75
:10068000E2D7000E1A1802E1010E191818E04652BE
:100690000DE0800E4518006E800E005C02E1140E25
:1006A000445C04E3140E445E000E455A2BDF44C044
:1006B00047F045C048F090DF374A382AE2D7BDD727
:0206C000120026
:1006C200010E526E38DD010E476E010E486E44C0B7
:1006D20049F0000E4A6ED8DE020E476E010E486ED9
:0C06E20045C049F0000E4A6ECFDE120049
:1006EE000F01386B3B6B926A896A956A8C6AC40EED
:1006FE00D56ED66A3F6A406A436A010E416EF28E2B
:04070E00F28A120059
:10071200ABEC03F072DFEADF1B0E446E280E456E6F
:10072200CFDF946A826A010E446E000E456E466AFD
:0607320076DFF9D7FFD7C6
:1007560010EE19F01E0E006E010E016E380EF66ECA
:0E076600070EF76E000EF86E08EC03F012009E
:020738000100BE
:0D073A004B6E696768742052696465720037
:0F07470042792050656E6E792042656C6C6500BA
:020000040030CA
:0D000100231F3CFFBF81FF0FC00FE00F4029
:00000001FF
