:0400000094EF03F086
:1000080000C016F001C015F0E9CF17F0EACF18F0DC
:10001800896A730EE96E000EEA6E00017751E926CF
:10002800D8B0EA2AEECF8CFF78C089FF78C001F0FB
:100038000136019001C078F00150080802E2010E73
:10004800786F772B77510308D8A0776BD66AF2942C
:1000580016C000F015C001F017C0E9FF18C0EAFF8C
:02006800110085
:0A006A00210E0D6E0D2EFED71200C0
:100074000F0E0C6E470E0D6E0D2EFED70C2EFCD7F8
:0600840000000000120064
:06008A000000000012005E
:10009000220E0C6E086A096A0A6A0B6A0C06D8B44A
:1000A0001FD0D8900B320A320932083203320232A2
:1000B00001320032D8A0F2D70C06D8B409D00450CF
:1000C00008260550092206500A2207500B22EAD7BB
:1000D000045008260550092206500A2207500B2218
:0200E00012000C
:1000E2000134083609360450085E0550D8A0053C94
:1000F200095E003601360F0E0C6E013408360936E1
:10010200045000A006D0085E0550D8A0053C095E48
:1001120005D008260550D8B0053C09260036013620
:100122000C2EEBD700B006D0045008260550D8B0EC
:08013200053C09260000120043
:10013A00000188BF02D08A9601D08A8688BD02D083
:10014A008A9401D08A8488BB02D08A9201D08A829A
:10015A0088B902D08A9001D08A8079B102D08A887F
:10016A0001D08A988A8A8CDF8A9A88B702D08A96BE
:10017A0001D08A8688B502D08A9401D08A8488B34D
:10018A0002D08A9201D08A8288B102D08A9001D0A4
:10019A008A8079B102D08A8801D08A988A8A70DFE7
:0E01AA008A9A79A102D061DF01D05ADF1200DB
:0E01B8000001799182C088F0BCDF79811200CD
:1001C600D00E0001846F070E856F000E866F876F55
:1001D600D00E006E070E016E000E026E000E036E4C
:1001E60082C004F083C005F0000E066E076E4DDF78
:1001F60000C084F001C085F002C086F003C087F01D
:10020600000E035C08E1000E025C05E1020E015CD3
:1002160002E1940E005C01E231D0940E845F020E7E
:10022600855B000E865B875B050E006E005007E05F
:100236008733863385338433879FFF0FF8D784C08F
:1002460000F085C001F086C002F087C003F0010E01
:10025600845F000E855B865B875B00500110021091
:1002660003100CE000000000000000000000000089
:0E02760000000000000000000000E1D71200B0
:100284000450000A08E10550000A05E1FF0E006E63
:100294007F0E016E57D00D6A096A086A015000107A
:1002A400D8B4000C015005180A6E0ABE0D1E0B6A64
:1002B40005AE05D0041E051E042AD8B4052A01AED5
:1002C40005D0001E011E002AD8B4012A01500510D1
:1002D4000A6E0ABE10D003DF0BB020D00DAE000CA6
:1002E400001E011E002AD8B4012A081E091E082A6D
:1002F400D8B4092A000C05AE0DD001BE07D00150B8
:10030400096E0050086E016A006AE8D7016A006A43
:10031400002A000C011E001E0B2ADDD7082AD8B4BF
:10032400092A0450085CD8A4D9D70550095CD8A47C
:10033400D5D7096A086A002AD8B4012A01AECED7F3
:060344000000FF0C120096
:10034A001ED03F0E006E3AD0060E006E37D05B0EFE
:10035A00006E34D04F0E006E31D0660E006E2ED075
:10036A006D0E006E2BD07D0E006E28D0070E006E2B
:10037A0025D07F0E006E22D06F0E006E1FD00001B6
:10038A008251000ADEE08251010ADEE08251020A4D
:10039A00DEE08251030ADEE08251040ADEE0825185
:1003AA00050ADEE08251060ADEE08251070ADEE033
:0E03BA008251080ADEE08251090ADEE01200DC
:1003C800086A096A100E0C6E0134083609360450A2
:1003D800085E0550D8A0053C095ED8B007D0045087
:1003E80008260550D8B0053C0926D89000360136B5
:0603F8000C2EEAD71200F2
:1003FE00939A939893909392939493968A9A8A98B9
:10040E008A968A948A928A902EDE2DDE2CDE8A823D
:10041E008A808A8A33DE8A9A26DE8A8A2FDE8A9A32
:10042E0022DE8A8A2BDE8A9A1EDE8A908A8A26DE4F
:10043E008A9A19DE8A8A22DE8A9A8A928A868A8A1B
:10044E001DDE8A9A10DE8A968A808A8A17DE8A9A3A
:10045E008A908A8A13DE8A9A06DE8A8A0FDE8A9A42
:10046E008A808A8A0BDE8A9AFEDD8A908A8A06DE66
:10047E008A9A8A868A848A828A808A8AFFDD8A9A02
:08048E00F2DD0001798112008A
:1004960010D0800E00017D6F1AD0C00E7D6F17D070
:1004A600940E7D6F14D0D40E7D6F11D0800E7D6FAB
:1004B6000ED000017D51010AECE07D51020AEDE00B
:1004C6007D51030AEDE07D51040AEDE0EFD77E058C
:1004D600006E7D51002600C07DF000C088F02ADE47
:1004E6007991816B81517F25E96E000E8021EA6E3C
:1004F600EE520BE081517F25E96E000E8021EA6EF7
:0E050600EECF82F056DE812BEDD77981120008
:10051400E80E046E030E056E35C000F036C001F01F
:1005240051DF00C071F001C072F000C082F00BDF37
:1005340000C076F0640E046E000E056E35C000F047
:1005440036C001F09DDE0A0E046E000E056E98DEC4
:1005540008C000F009C001F000C071F001C072F0E1
:1005640000C082F0F0DE00C075F00A0E046E000ECA
:10057400056E35C000F036C001F082DE0A0E046E4E
:10058400000E056E7DDE08C000F009C001F000C059
:1005940071F001C072F000C082F0D5DE00C074F0CA
:1005A4000A0E046E000E056E35C000F036C001F070
:1005B40067DE08C000F009C001F000C071F001C09E
:0E05C40072F000C082F0BFDE00C073F01200C3
:1005D20035C082FF7DC082F07EC083F0F3DD353608
:0605E200359036361200D0
:1005E80035C082FF7DC082F07EC083F0E8DD363200
:1005F8003532369E36BC368E36AE03D002E3354AE7
:04060800362A12007C
:10060C000F01396BF6DE010E886F91DD0C0E886FD1
:04061C008EDD12005D
:100620000900F5CFE6FF0006FBE10106F9E1120043
:1006300000016F6B706B7C5305E0100E6D6F270E21
:100640006E6F04D00F0E6D6F000E6E6F70516E5D89
:1006500002E16F516D5D3DE3000E361802E1800E40
:10066000351818E07C530DE0800E7B19006E800E6B
:10067000005C02E1140E7A5D04E3140E7A5F000E52
:100680007B5B48DF7AC07DF07BC07EF0A2DF6F4BE2
:10069000702BE2D7000E361802E1010E351818E073
:1006A0007C530DE0800E7B19006E800E005C02E131
:1006B000140E7A5D04E3140E7A5F000E7B5B2ADF72
:1006C0007AC07DF07BC07EF08FDF6F4B702BE2D75E
:0406D000BDD7120080
:1006D400010E0001886F2FDD010E7D6F010E7E6F0C
:1006E4007AC07FF0000E806FD4DE020E7D6F010EA3
:0E06F4007E6F7BC07FF0000E806FCBDE1200A9
:100702000F01386B3B6B926A896A956A8C6AC40ED8
:10071200D56ED66A0001716B726B776B010E786FC2
:06072200F28EF28A1200C3
:10072800F8EC03F06FDFE9DF190E7A6F260E7B6FA6
:10073800CDDF946A826A190E7A6F460E7B6FC6DF28
:10074800F40E7A6F010E7B6F7C6B6EDF190E7A6F79
:10075800530E7B6FBBDF580E7A6F020E7B6F7C6B7C
:1007680063DF190E7A6F600E7B6FB0DF960E7A6FBB
:10077800000E7B6F7C6B58DF190E7A6F370E7B6F1C
:10078800A5DFF40E7A6F010E7B6F010E7C6F4CDFD4
:04079800D2D7FFD7DE
:1007F00010EE19F0540E006E010E016E9C0EF66E96
:0E080000070EF76E000EF86E10EC03F01200FB
:0D079C004B6E6967687420526964657200D5
:0F07A90042792050656E6E792042656C6C650058
:0207B80001003E
:0F07BA005661726961626C652044656C617900FB
:0D07C90044656C61793A203530306D730065
:0D07D60044656C61793A203630306D730057
:0D07E30044656C61793A203135306D73004A
:020000040030CA
:0D000100231F3CFFBF81FF0FC00FE00F4029
:00000001FF
