:1000000059EF03F00000000000EF00F000000000D6
:0A0010000000000000000000F3D71C
:10001C00086A096A100E0C6E013408360936045051
:10002C00085E0550D8A0053C095ED8B007D0045036
:10003C0008260550D8B0053C0926D8900036013664
:06004C000C2EEAD71200A1
:100052002C062C062CC001F02C060150000803E2ED
:1000620000000000F7D700000000000000000000C0
:0200720012007A
:100074000B6A0A6A096A086A0E6A0334083604506D
:10008400085E0550D8A0053C095E0650D8A0063C81
:100094000A5E0750D8A0073C0B5EE86AD8A0010EA0
:1000A4000E5E0336070E0C6E0334083609360A3624
:1000B4000B360E36045003A012D0085E0550D8A0AB
:1000C400053C095E0650D8A0063C0A5E0750D8A03D
:1000D400073C0B5EE86AD8A0010E0E5E11D008261C
:1000E4000550D8B0053C09260650D8B0063C0A266F
:1000F4000750D8B0073C0B26E86AD8B0010E0E268C
:1001040003360C2ED1D70234083609360A360B369C
:100114000E36045003A012D0085E0550D8A0053C4A
:10012400095E0650D8A0063C0A5E0750D8A0073CDA
:100134000B5EE86AD8A0010E0E5E11D008260550A9
:10014400D8B0053C09260650D8B0063C0A2607500C
:10015400D8B0073C0B26E86AD8B0010E0E2602364A
:10016400070E0C6E0234083609360A360B360E3684
:10017400045002A012D0085E0550D8A0053C095EC8
:100184000650D8A0063C0A5E0750D8A0073C0B5E78
:10019400E86AD8A0010E0E5E11D008260550D8B02A
:1001A400053C09260650D8B0063C0A260750D8B0AC
:1001B400073C0B26E86AD8B0010E0E2602360C2E38
:1001C400D1D70134083609360A360B360E360450B8
:1001D40002A012D0085E0550D8A0053C095E065066
:1001E400D8A0063C0A5E0750D8A0073C0B5EE86A1C
:1001F400D8A0010E0E5E11D008260550D8B0053CDB
:1002040009260650D8B0063C0A260750D8B0073C49
:100214000B26E86AD8B0010E0E260136070E0C6EC6
:100224000134083609360A360B360E36045001A05E
:1002340012D0085E0550D8A0053C095E0650D8A02F
:10024400063C0A5E0750D8A0073C0B5EE86AD8A0BB
:10025400010E0E5E11D008260550D8B0053C0926C3
:100264000650D8B0063C0A260750D8B0073C0B26E7
:10027400E86AD8B0010E0E2601360C2ED1D7003410
:10028400083609360A360B360E36045001A012D051
:10029400085E0550D8A0053C095E0650D8A0063C6F
:1002A4000A5E0750D8A0073C0B5EE86AD8A0010E8E
:1002B4000E5E11D008260550D8B0053C092606501C
:1002C400D8B0063C0A260750D8B0073C0B26E86A8B
:1002D400D8B0010E0E260036070E0C6E0034083618
:1002E40009360A360B360E36045000A012D0085ECA
:1002F4000550D8A0053C095E0650D8A0063C0A5E0D
:100304000750D8A0073C0B5EE86AD8A0010E0E5E29
:1003140011D008260550D8B0053C09260650D8B09F
:10032400063C0A260750D8B0073C0B26E86AD8B02A
:10033400010E0E2600360C2ED1D700B00ED004507C
:1003440008260550D8B0053C09260650D8B0063C0E
:0C0354000A260750D8B0073C0B26120008
:10036000400E006E1F0E016E000E026E036E120034
:10037000220E0C6E086A096A0A6A0B6A0C06D8B467
:100380001FD0D8900B320A320932083203320232BF
:1003900001320032D8A0F2D70C06D8B409D00450EC
:1003A00008260550092206500A2207500B22EAD7D8
:1003B000045008260550092206500A2207500B2235
:0203C000120029
:1003C200020E0C6E490E0D6E0D2EFED70C2EFCD7B2
:0603D20000000000120013
:1003D800C3DFE80E046E030E056E000E066E076E90
:1003E800C3DF00C028F001C029F002C02AF003C012
:1003F8002BF020C004F021C005F0000E066E076E39
:1004080035DE00C028F001C029F002C02AF003C080
:100418002BF000C005F001C006F002C007F003C0D1
:1004280008F00832073206320532089E08320732D1
:1004380006320532089E05C000F006C001F007C06C
:1004480002F008C003F00332023201320032039E88
:1004580000C024F001C025F07FDF22C004F023C0D3
:1004680005F0000E066E076E7FDF24C009F025C078
:100478000AF0000E0B6E0C6E030E086E09C004F035
:100488000AC005F00BC006F00CC007F0085007E0E2
:1004980004360490053606360736FF0FF8D7E6DD32
:1004A80000C028F001C029F002C02AF003C02BF0D8
:1004B8000A0E046E000E056E24C000F025C001F07F
:1004C800A9DD00C024F001C025F0000E015C02E1A6
:1004D800030E005C01E241D015C0E9FF16C0EAFF37
:1004E8002B50000808E12A50000805E129500008AF
:1004F80002E1285000082FE21750EF1225520DE0B4
:10050800266A276A000E275C02E12550265C05E270
:100518002C6A9BDD264A272AF5D724C02CF095DDC6
:100528001850EF1625520DE0266A276A000E275C40
:1005380002E12550265C05E22C6A87DD264A272A37
:10054800F5D724C02CF081DD010E285E000E295A53
:0C0558002A5A2B5AC5D71850EF16120073
:10056400920E206E000E216E19C022F01AC023F0E4
:0405740031DF120061
:10057800A40E206E000E216E19C022F01AC023F0BE
:0405880027DF120057
:10058C0019C015F01AC016F01BC001F0010E006E58
:10059C00015004E000360090FF0FFBD700C017F0AD
:1005AC00001E00C018F0120E1924E96E000E1A205D
:1005BC00EA6E0050EF16120EE95E0050EF161200B4
:1005CC00050E206E010E216E19C022F01AC023F008
:0405DC00FDDE12002E
:1005E0001F6A1BC001F0010E006E015004E00036CE
:1005F0000090FF0FFBD700C01EF019C0E9FF1AC022
:10060000EAFF0050EE14016E0152010ED8A4000E54
:10061000006E1D50001A18E01C50000804E2D1DEE4
:10062000D0DE1C06F9D719C0E9FF1AC0EAFF1E5038
:10063000EE14016E0152010ED8A4000E006E1D5082
:0E064000001A02E0FF0E1F6E1FC000F0120035
:10064E00AE0E206E000E216E19C022F01AC023F0DD
:04065E00BCDE1200EC
:10066200C40E206E000E216E19C022F01AC023F0B3
:04067200B2DE1200E2
:10067600F60E206E000E216E19C022F01AC023F06D
:04068600A8DE1200D8
:10068A00820E206E000E216E19C022F01AC023F0CD
:04069A009EDE1200CE
:10069E00DC0E206E000E216E19C022F01AC023F05F
:0406AE0094DE1200C4
:1006B200FF0E936E0F01396B816A799E789E840ECC
:1006C200196E0F0E1A6E010E1B6E5FDF816A810EAC
:1006D200196E0F0E1A6E010E1B6E010E1C6E010EAC
:1006E2001D6E7DDF005208E0320E196E000E1A6E8A
:1006F200CBDF81A001D0FDD7810E196E0F0E1A6ECD
:10070200020E1B6E010E1C6E010E1D6E68DF005282
:1007120008E0320E196E000E1A6E23DF81A201D09C
:10072200FDD7810E196E0F0E1A6E030E1B6E010E8F
:100732001C6E010E1D6E53DF005208E0320E196E60
:10074200000E1A6E18DF81A401D0FDD7810E196E3A
:100752000F0E1A6E040E1B6E010E1C6E010E1D6E24
:100762003EDF005208E0320E196E000E1A6E6EDF86
:1007720081A601D0FDD7810E196E0F0E1A6E050EDD
:100782001B6E010E1C6E010E1D6E29DF005208E069
:10079200320E196E000E1A6E63DF81A801D0FDD7EA
:1007A200810E196E0F0E1A6E060E1B6E010E1C6E56
:1007B200010E1D6E14DF005208E0320E196E000E9B
:1007C2001A6E6CDF81AA01D0FDD7810E196E0F0E51
:1007D2001A6E070E1B6E010E1C6E010E1D6EFFDEE1
:1007E200005208E0320E196E000E1A6E43DF81AC21
:1007F20001D0FDD7810E196E0F0E1A6E080E1B6EF8
:10080200010E1C6E010E1D6EEADE005208E0320E71
:10081200196E000E1A6ED9DE81AE01D0FDD756D701
:02082200FFD7FE
:020000040030CA
:0D000100231F3CFFBF81FF0FC00FE00F4029
:00000001FF
